:020000040800F2
:10000000000002202D090008190700081B0700083E
:100010001D0700081F070008210700080000000056
:10002000000000000000000000000000230700089E
:10003000250700080000000027070008290700081E
:100040007D0900087D0900087D0900087D09000878
:100050007D0900087D0900087D0900087D09000868
:100060007D0900087D090008310700087D090008A6
:100070007D0900087D0900087D0900087D09000848
:100080007D0900087D0900087D0900087D09000838
:100090007D0900087D0900087D0900087D09000828
:1000A0007D0900087D0900087D0900087D09000818
:1000B0007D0900087D0900087D0900087D09000808
:1000C0007D0900087D0900087D0900087D090008F8
:1000D0007D0900087D0900087D0900087D090008E8
:1000E0007D0900087D0900087D0900087D090008D8
:1000F0007D0900087D0900087D0900087D090008C8
:100100007D0900087D0900087D0900087D090008B7
:100110007D0900087D0900087D0900087D090008A7
:100120007D0900087D0900087D0900087D09000897
:100130007D0900087D0900087D0900087D09000887
:100140007D0900087D0900087D0900087D09000877
:100150007D0900087D0900083D0700087D090008A9
:100160007D0900087D0900087D0900087D09000857
:100170007D0900087D0900087D09000800000000D5
:080180007D0900087D0900085B
:1001880010B5054C237833B9044B13B10448AFF3C9
:1001980000800123237010BD3C04002000000000F3
:1001A800E023000808B5034B1BB103490348AFF32C
:1001B800008008BD0000000040040020E023000883
:1001C80053B94AB9002908BF00281CBF4FF0FF31B6
:1001D8004FF0FF3000F074B9ADF1080C6DE904CEB2
:1001E80000F006F8DDF804E0DDE9022304B070470A
:1001F8002DE9F047089E0D4604468846002B4DD150
:100208008A42944668D9B2FA82F252B101FA02F3EC
:10021800C2F1200120FA01F10CFA02FC41EA0308BC
:1002280094404FEA1C45210CB8FBF5FE1FFA8CF7E9
:1002380005FB1E8341EA03430EFB07F199420BD9E4
:100248001CEB03030EF1FF3080F01E81994240F24F
:100258001B81AEF1020E63445B1AA4B2B3FBF5F046
:1002680005FB103344EA034400FB07F7A7420AD909
:100278001CEB040400F1FF3380F00881A74240F230
:10028800058164440238E41B40EA0E4000211EB197
:10029800D4400023C6E90043BDE8F0878B4208D963
:1002A800002E00F0EE800021C6E900050846BDE8F2
:1002B800F087B3FA83F100294AD1AB4202D38242D4
:1002C80000F2F980841A65EB030301209846002E9A
:1002D800E2D0C6E90048DFE702B9FFDEB2FA82F2EF
:1002E800002A40F09180A1EB0C054FEA1C471FFA49
:1002F8008CFE0121B5FBF7F307FB1350250C45EAEB
:1003080000450EFB03F0A84208D91CEB050503F1D4
:10031800FF3802D2A84200F2CB8043462D1AA4B27D
:10032800B5FBF7F007FB105544EA05440EFB00FE49
:10033800A64508D91CEB040400F1FF3502D2A645F6
:1003480000F2BB802846A4EB0E0440EA03409EE777
:10035800C1F120078B4022FA07FC4CEA030C20FA73
:1003680007F405FA01F31C43FD404FEA1C4900FA63
:1003780001F3B5FBF9F8200C1FFA8CFE09FB1855A0
:1003880040EA054508FB0EF0A84202FA01F20BD933
:100398001CEB050508F1FF3A80F08880A84240F27E
:1003A8008580A8F1020865442D1AA4B2B5FBF9F0BE
:1003B80009FB105544EA054500FB0EFEAE4508D979
:1003C8001CEB050500F1FF346CD2AE456AD9023842
:1003D800654440EA0840A0FB0294A5EB0E05A5423F
:1003E800C846A64656D353D05EB1B3EB080265EBB8
:1003F8000E0505FA07F722FA01F3CD401F43C6E9B7
:1004080000750021BDE8F087C2F1200320FA03F14E
:100418000CFA02FC25FA03F395400D434FEA1C47FA
:100428001FFA8CFEB3FBF7F107FB11302B0C43EAE4
:10043800004301FB0EF0984204FA02F408D91CEBC1
:10044800030301F1FF382FD298422DD902396344B2
:100458001B1AADB2B3FBF7F007FB103345EA0345AF
:1004680000FB0EF3AB4208D91CEB050500F1FF3881
:1004780016D2AB4214D902386544ED1A40EA01415C
:1004880038E73146304607E78646E5E61846FAE695
:100498004B45A9D2B9EB020864EB0C0E0138A3E76F
:1004A8004046EAE7204694E74146D1E7D0467BE755
:1004B800023B654432E7084609E76444023842E7EC
:1004C800704700BF82B000230193064B1A6B42F4B9
:1004D80080021A631B6B03F480030193019B02B033
:1004E800704700BF0038024008B500221146462078
:1004F80000F072FD462000F0A7FD08BD70B58AB077
:1005080000240594069407940894099400942C4BAD
:100518001A6B42F010021A631A6B02F01002009272
:10052800009A01941A6B42F004021A631A6B02F0E3
:1005380004020192019A02941A6B42F080021A6333
:100548001A6B02F080020292029A03941A6B42F02C
:1005580001021A631A6B02F001020392039A0494CF
:100568001A6B42F002021A631B6B03F00203049336
:10057800049B144E22464FF44061304601F0C0F807
:10058800FF23059306940125079505A90E4800F059
:10059800C5FF102305934FF404130693079505A987
:1005A8000A4800F0BBFF4FF44063059311230693FC
:1005B8000795089405A9304600F0B0FF0AB070BD51
:1005C80000380240000402400010024000000240CF
:1005D80008B5002211460A2000F0FEFC0A2000F0AF
:1005E80033FD08BD72B6FEE700B595B03022002194
:1005F80008A801F02FFE00230393049305930693A4
:10060800079301931F4A116C41F080511164126CD9
:1006180002F080520192019A02931B4A116841F438
:1006280080411160126802F480420292029A02220A
:10063800089201210B9110210C910E920F9308231F
:100648001093A823119312920423139308A801F07E
:100658006BF898B90F23039302230493002305939F
:100668004FF4A05306934FF480530793052103A832
:1006780001F0A8FA20B915B05DF804FBFFF7B2FF46
:10068800FFF7B0FF003802400070004008B500F0E6
:1006980051FCFFF7A9FF00F0D5FAFFF72FFFFFF78E
:1006A80011FF00F051F800F0E9F800F0CBFAFFF77D
:1006B8001BFFFFF78DFF064B1B78012BFBD1044B6B
:1006C80000221A704FF41661024800F0C9FAF2E7E6
:1006D800AC0E00204C05002082B0002100910B4B8D
:1006E8005A6C42F480425A645A6C02F48042009276
:1006F800009A01911A6C42F080521A641B6C03F044
:1007080080530193019B02B0704700BF003802403C
:10071800FEE7FEE7FEE7FEE7FEE770477047704733
:1007280008B500F021FC08BD08B5102000F0EEFF68
:1007380008BD000008B5024800F0D4FD08BD00BFA0
:10074800580400207047000000B589B000230393C7
:100758000493059306930793019302931848194A43
:1007680002604FF6FF7242608360C26003614361BA
:10077800836101F08FFBC8B90623039370230493A8
:100788004FF40043059300230693079303A90C48ED
:1007980001F014FC68B900230193029301A90848E9
:1007A80001F036FC40B909B05DF804FBFFF71AFF09
:1007B800E2E7FFF717FFEEE7FFF714FFF3E700BFE5
:1007C800B80400200004014030B589B00023039329
:1007D8000493059306930793026803F1804303F596
:1007E80082339A4201D009B030BD044600250195F4
:1007F80003F59A335A6C42F002025A645A6C02F0BA
:1008080002020192019A02951A6B42F001021A63E0
:100818001B6B03F001030293029B01230393022342
:1008280004930323079303A9114800F077FE1148A6
:10083800114B03604FF0606343608560C5604FF4FF
:100848008063036145618561C5614FF4403303628C
:10085800456200F099FC38B9064B23639C63A36397
:100868009C6363639C63BEE7FFF7BCFEF4E700BFCD
:100878000000024058040020B864024008B50A4845
:100888000A4B03604FF4FA23436000238360C3607C
:1008980003610C2242618361C36101F087FC00B9E6
:1008A80008BDFFF79FFEFBE7000500200010014090
:1008B80000B589B000230393049305930693079327
:1008C800026803F1804303F588339A4202D009B0E5
:1008D8005DF804FB0021019103F594335A6C42F052
:1008E80010025A645A6C02F010020192019A0291A5
:1008F8001A6B42F001021A631B6B03F001030293A7
:10090800029B4FF4C06303930223049303230693CB
:100918000723079303A9024800F000FED7E700BFAA
:1009280000000240DFF834D0FFF70CFF0C480D49F7
:100938000D4A002302E0D458C4500433C4188C4232
:10094800F9D30A4A0A4C002301E013600432A24298
:10095800FBD301F05BFCFFF799FE70470000022013
:10096800000000203C040020302400083C04002043
:10097800B80E0020FEE70000044B01221A70044B59
:100988001A68D36823F48043D3607047AC0E002004
:10099800B804002008B580221221212000F06CFA4A
:1009A800322000F0F3FA09E001220B21212000F0A7
:1009B80077FA854B1870012000F0E8FA824B1B7813
:1009C800212BF1D1C1220D21212000F055FA01225D
:1009D8001121212000F050FA03220921212000F0E2
:1009E8004BFAD0220C21212000F046FA4022122195
:1009F800212000F041FA3F221721212000F03CFA83
:100A080050221821212000F037FA03221921212031
:100A180000F032FA78221A21212000F02DFA002263
:100A28003221212000F028FA0A22A021212000F0FA
:100A380023FAE0226321212000F01EFAFF22AC21D4
:100A4800212000F019FA0C226521212000F014FA67
:100A580000226621212000F00FFA002267212120C0
:100A680000F00AFA28222921212000F005FA3C2268
:100A78002C21212000F000FA01222821212000F059
:100A8800FBF910222A21212000F0F6F91F222B2140
:100A9800212000F0F1F90C227E21212000F0ECF950
:100AA80016227F21212000F0E7F92A228021212027
:100AB80000F0E2F94E228121212000F0DDF96122C7
:100AC8008221212000F0D8F96F228321212000F013
:100AD800D3F97B228421212000F0CEF986228521BA
:100AE800212000F0C9F98E228621212000F0C4F9C6
:100AF80097228721212000F0BFF9A42288212120F4
:100B080000F0BAF9AF228921212000F0B5F9C522F9
:100B18008A21212000F0B0F9D7228B21212000F072
:100B2800ABF9E8228C21212000F0A6F920228D21A2
:100B3800212000F0A1F900224A21212000F09CF98F
:100B480013224921212000F097F90822472121206A
:100B580000F092F914224B21212000F08DF9172280
:100B68004C21212000F088F905224621212000F09F
:100B780083F999222221212000F07EF903222321E2
:100B8800212000F079F90422A621212000F074F92F
:100B980000229B21212000F06FF940229C21212076
:100BA80000F06AF90622AB21212000F065F9112234
:100BB8009E21212000F060F902229F21212000F0CF
:100BC8005BF9012008BD00BF4805002008B5074BA8
:100BD8001A68D36843F48043D3604FF41663044A19
:100BE8000449054800F036FB08BD00BFB8040020E2
:100BF8004C050020101002405804002008B502E0FF
:100C08000B4800F05CFB0B4A0021094800F058FC37
:100C18000028F5D14FF41663074A0849044800F044
:100C280019FB074B1A68D36843F48043D36008BDA7
:100C380058040020810900084C05002010140240C7
:100C4800B804002008B5FFF7A5FEFFF7D7FF00207E
:100C580008BD03681A6812F0400FFAD0596070474F
:100C680070B506460D460D4C00212046FFF7F1FFF2
:100C7800FF212046FFF7EDFF01212046FFF7E9FF9E
:100C880001212046FFF7E5FF002404E0315D034819
:100C9800FFF7DFFF0134AC42F8D370BD0005002038
:100CA80010B5104C00224FF48061204600F028FD5A
:100CB80001224FF48061204600F022FD236913F4DD
:100CC800006F07D100224FF48061064800F018FD3C
:100CD800012010BD00224FF48061204600F010FD75
:100CE8000020F6E70004024010B50D4C01224FF435
:100CF8000061204600F004FD01224FF48061204687
:100D080000F0FEFC00224FF40061204600F0F8FCE1
:100D180000224FF48061204600F0F2FC10BD00BFB5
:100D28000004024010B50D4C00224FF4006120462B
:100D380000F0E6FC00224FF48061204600F0E0FC61
:100D480001224FF48061204600F0DAFC01224FF4C2
:100D58000061204600F0D4FC10BD00BF0004024032
:100D680010B5044600224FF480610F4800F0C8FC1B
:100D78009CB100224FF400610B4800F0C1FC0A4C02
:100D880001224FF48061204600F0BAFC00224FF4A3
:100D98008061204600F0B4FC10BD01224FF40061D0
:100DA800014800F0ADFCEAE70004024070B50446D3
:100DB800082215E000224FF40061114800F0A0FC61
:100DC8006400E4B20E4E01224FF48061304600F018
:100DD80097FC00224FF48061304600F091FC2A46CF
:100DE800531EDDB24AB114F0800FE3D001224FF454
:100DF8000061034800F084FCE2E7FFF751FF70BD93
:100E080000040240F8B507461A4C00224FF48061EE
:100E1800204600F075FC01224FF40061204600F0E6
:100E28006FFC0024254601E00135EDB2072D15D8E9
:100E3800104E00224FF48061304600F061FC012220
:100E48004FF48061304600F05BFC6400E4B2336923
:100E580013F4006FE8D00134E4B2E5E700224FF460
:100E68008061044800F04CFC3846FFF779FF2046C3
:100E7800F8BD00BF0004024070B504460E46154692
:100E8800FFF732FF640004F0FE00FFF78FFF3046E3
:100E9800FFF78CFF2846FFF789FFFFF743FF70BD78
:100EA80070B504460E461546FFF71EFF600000F0B9
:100EB800FE00FFF77BFF3046FFF778FF012D0FD0CC
:100EC800FFF712FF600040F00100C0B2FFF76EFFAD
:100ED8000020FFF797FF0446FFF724FF204670BD68
:100EE800FFF720FFECE7000010B504460E4B18781A
:100EF8004FF47A73B3FBF0F30C4A1068B0FBF3F0CD
:100F080000F0B0F868B90F2C01D901200AE00022DE
:100F180021464FF0FF3000F05FF8054B1C600020C1
:100F280000E0012010BD00BF0400002000000020E8
:100F38000800002008B50B4B1A6842F400721A60CA
:100F48001A6842F480621A601A6842F480721A6061
:100F5800032000F02FF80020FFF7C6FFFFF7BCFBC7
:100F6800002008BD003C0240034A1168034B1B786F
:100F78000B441360704700BFB00E0020040000202F
:100F8800014B1868704700BFB00E002038B5044602
:100F9800FFF7F6FF0546B4F1FF3F02D0044B1B787C
:100FA8001C44FFF7EDFF401BA042FAD338BD00BF39
:100FB80004000020074AD36823F4E0631B041B0CD9
:100FC800000200F4E060034343F0BF6343F40033DE
:100FD800D360704700ED00E000B5194BDB68C3F340
:100FE8000223C3F1070CBCF1040F28BF4FF0040C17
:100FF80003F1040EBEF1060F18D9033B4FF0FF3E74
:101008000EFA0CFC21EA0C0199400EFA03F322EACD
:101018000303194300280BDB0901C9B200F1604042
:1010280000F5614080F800135DF804FB0023E5E754
:1010380000F00F000901C9B2024B1954F4E700BFD0
:1010480000ED00E014ED00E0002807DB00F01F02CF
:10105800400901239340024A42F82030704700BFFC
:1010680000E100E00138B0F1807F0BD24FF0E023BF
:101078005861054AF02182F8231000209861072260
:101088001A6170470120704700ED00E030B4056830
:101098002C6824F480242C60046863608368402BE7
:1010A80005D0036899600368DA6030BC704703684C
:1010B8009A600368D960F8E710B40368D9B21039A8
:1010C8000B4AA2FB014212090A4CA25CC2655F29C5
:1010D80008D923F47F7323F0030304338365806DF9
:1010E80010BC704723F47F7323F003038365F6E78E
:1010F800ABAAAAAA10240008836A826992B9012BB4
:101108000AD0022B02D00BB100207047C36A13F03B
:10111800807F28D100207047C36AB3F1C07F24D0F4
:1011280000207047B2F5005F09D0022B25D9032BA8
:1011380025D1C36A13F0807F23D100207047032B89
:1011480003D8DFE803F01404140A00207047C36AC8
:1011580013F0807F0DD100207047C36AB3F1C07FC0
:1011680009D00020704701207047012070470120F6
:101178007047012070470120704701207047002008
:10118800704701207047000070B50446FFF7F8FE6D
:10119800002C5BD00546022384F83530002384F800
:1011A80034302268136823F00103136023681A6837
:1011B80012F0010F0AD0FFF7E3FE431B052BF5D908
:1011C80020236365032084F8350070BD1A68204821
:1011D80010406168A2680A43E1680A4321690A432A
:1011E80061690A43A1690A43E1690A43216A0A431A
:1011F8000243616A04291ED01A602668756925F0C1
:101208000705636A1D43042B07D1A36A1D43E36ADC
:101218001BB12046FFF770FF90B975612046FFF7B4
:101228004BFFE26D3F2393408360002060650123FC
:1012380084F83530C9E7E16A206B01430A43DBE7EC
:1012480040236365012084F83500BEE70120BCE730
:101258003F8010F038B50446856D90F834000128B9
:101268002BD0012084F8340094F83500C0B201284E
:1012780004D0002384F83430022038BD022084F8DA
:101288003500002060652046FFF700FFE26D3F2330
:101298009340AB602268136843F016031360236C15
:1012A80023B12268136843F00803136022681368A7
:1012B80043F0010313600020DFE70220DDE790F828
:1012C8003530DBB2022B03D0802343650120704701
:1012D800052380F835300268136823F00103136092
:1012E80000207047F0B583B0044600230193724B89
:1012F8001D68724BA3FB0535AD0A876D3E68C26D4C
:1013080008239340334210D003681A6812F0040F80
:101318000BD01A6822F004021A60C26D08239340A9
:10132800BB60436D43F001034365E26D01239340C5
:10133800334209D02268526912F0800F04D0BB6092
:10134800636D43F002036365E26D04239340334207
:1013580009D02268126812F0020F04D0BB60636DD6
:1013680043F004036365E26D10239340334224D0B5
:101378002268126812F0080F1FD0BB6023681A6831
:1013880012F4802F0DD01B6813F4002F04D1236CA6
:101398009BB12046984710E0A36C73B1204698474C
:1013A8000BE01A6812F4807F03D11A6822F0080251
:1013B8001A60236C0BB120469847E26D20239340B6
:1013C800334255D02268126812F0100F50D0BB601B
:1013D80094F83530DBB2052B0ED023681A6812F466
:1013E800802F33D01B6813F4002F2AD1636C002B95
:1013F8003ED0204698473BE02268136823F0160346
:1014080013602268536923F080035361236CA3B1EE
:101418002268136823F008031360E26D3F239340AA
:10142800BB60012384F83530002384F83430236D01
:10143800002B3FD0204698473CE0A36C002BE7D117
:10144800EBE7E36BA3B12046984711E01A6812F462
:10145800807F09D11A6822F010021A60012384F8EB
:101468003530002384F83430E36B0BB120469847BD
:10147800636DFBB1636D13F0010F17D0052384F87A
:1014880035302268136823F001031360019B013390
:101498000193AB4204D823681B6813F0010FF5D100
:1014A800012384F83530002384F83430E36C0BB121
:1014B8002046984703B0F0BD00000020B5814E1BC0
:1014C800034690F83400012825D0012083F8340021
:1014D80093F83500C0B2012804D00120002283F817
:1014E800342070470529F9D8DFE801F00306090C14
:1014F8000F12DA630846F1E71A640020EEE75A642F
:101508000020EBE79A640020E8E7DA640020E5E7CA
:101518001A650020E2E702207047000000230F2B25
:1015280000F2E48070B582B060E085685E00032454
:10153800B44025EA0405CC68B4402C43846045686F
:1015480025EA02054C68C4F300129A402A43426017
:101558005AE0DC08083450F8246003F007029500CC
:101568000F22AA4026EA020E0A69AA4042EA0E029F
:1015780040F824205CE0072200E0002202FA0EF284
:101588002A4302345A4D45F824205A4A94686FEA8F
:101598000C0224EA0C054E6816F4801F01D04CEAB0
:1015A8000405544CA560E46802EA04054E6816F484
:1015B800001F01D04CEA04054E4CE560646802EA5D
:1015C80004054E6816F4003F01D04CEA0405494C66
:1015D8006560246822404D6815F4803F01D04CEACC
:1015E8000402444C226001330F2B7DD801229A401B
:1015F8000C6804EA020C32EA0404F4D14C6804F0E2
:101608000304013C012C90D94A6802F00302032A22
:1016180009D0C4685D000322AA4024EA02048A684B
:10162800AA402243C2604A6802F00302022A90D00C
:1016380004684FEA430E032202FA0EF224EA020477
:101648004A6802F0030202FA0EF2224302604A6874
:1016580012F4403FC7D000220192274A546C44F448
:1016680080445464526C02F480420192019A9C08AE
:10167800A51C1F4A52F8255003F003024FEA820EB8
:101688000F2202FA0EF225EA02051C4A90423FF4A4
:1016980074AF02F5806290421AD002F580629042DF
:1016A80018D002F58062904216D002F5806290420E
:1016B80014D002F58062904212D002F58062904206
:1016C80010D002F5806290423FF455AF082255E7EA
:1016D800012253E7022251E703224FE704224DE794
:1016E80005224BE7062249E702B070BD704700BFEC
:1016F80000380140003C0140003802400000024030
:101708000AB18161704709048161704708B5054BCA
:101718005B69034200D108BD024B5861FFF756FAD6
:10172800F9E700BF003C0140002800F0E08170B5F7
:1017380082B00446036813F0010F3BD09F4B9B68AF
:1017480003F00C03042B2CD09C4B9B6803F00C0378
:10175800082B21D06368B3F5803F4FD0B3F5A02F95
:1017680052D0964B1A6822F480321A601A6822F412
:1017780080221A606368002B50D0FFF701FC0546F1
:101788008E4B1B6813F4003F14D1FFF7F9FB401B85
:101798006428F5D90320B1E1884B5B6813F4800F06
:1017A800D8D0864B1B6813F4003F03D06368002B26
:1017B80000F09F81236813F0020F54D07F4B9B6881
:1017C80013F00C0F3ED07D4B9B6803F00C03082BE5
:1017D80033D0E368002B68D0794B01221A60FFF7F9
:1017E800CFFB0546754B1B6813F0020F54D1FFF76A
:1017F800C7FB401B0228F5D903207FE16F4A136815
:1018080043F480331360B5E76C4B1A6842F48022C6
:101818001A601A6842F480321A60ABE7FFF7B0FB2F
:101828000546664B1B6813F4003FC3D0FFF7A8FBBF
:10183800401B6428F5D9032060E1604B5B6813F412
:10184800800FC6D15D4B1B6813F0020F03D0E3680D
:10185800012B40F05081594A136823F0F80321699D
:1018680043EAC1031360236813F0080F42D0636989
:101878006BB3534B0122C3F8802EFFF781FB05465B
:101888004E4B5B6F13F0020F34D1FFF779FB401B0F
:101898000228F5D9032031E1484A136823F0F803F8
:1018A800216943EAC1031360DDE7454B00221A6052
:1018B800FFF766FB0546414B1B6813F0020FD2D0B9
:1018C800FFF75EFB401B0228F5D9032016E13C4BCD
:1018D8000022C3F8802EFFF753FB0546374B5B6F9A
:1018E80013F0020F06D0FFF74BFB401B0228F5D977
:1018F800032003E1236813F0040F77D02F4B1B6CF0
:1019080013F0805F33D1002301932C4B1A6C42F003
:1019180080521A641B6C03F080530193019B0125CC
:10192800284B1B6813F4807F23D0A368012B34D085
:10193800052B38D0214B1A6F22F001021A671A6F53
:1019480022F004021A67A368002B3DD0FFF718FBAA
:1019580006461A4B1B6F13F0020F46D1FFF710FB18
:10196800801B41F288339842F3D90320C6E0002552
:10197800D6E7144A136843F480731360FFF700FB3B
:101988000646104B1B6813F4807FCED1FFF7F8FA98
:10199800801B0228F5D90320B0E0084A136F43F0F2
:1019A80001031367CFE7054B1A6F42F004021A6769
:1019B8001A6F42F001021A67C5E700BF00380240FB
:1019C8000000474200700040FFF7DAFA0646524B23
:1019D8001B6F13F0020F08D0FFF7D2FA801B41F2F9
:1019E80088339842F3D9032088E0EDB9A369002B26
:1019F80000F08380484A926802F00C02082A51D00D
:101A0800022B17D0454B00221A66FFF7B9FA044695
:101A1800414B1B6813F0007F42D0FFF7B1FA001B5F
:101A28000228F5D9032069E03B4A136C23F0805360
:101A38001364DBE7394B00221A66FFF7A1FA054663
:101A4800354B1B6813F0007F06D0FFF799FA401B4F
:101A58000228F5D9032051E0E369226A1343626A38
:101A680043EA8213A26A5208013A43EA0243E26A4D
:101A780043EA0263284A5360284B01221A66FFF79B
:101A88007FFA0446244B1B6813F0007F06D1FFF74A
:101A980077FA001B0228F5D903202FE000202DE05B
:101AA80000202BE0012B2BD01B4B5B6803F480013B
:101AB800E269914226D103F03F02216A8A4223D18A
:101AC800616A47F6C0721A40B2EB811F1ED103F457
:101AD8004031A26A5208013AB1EB024F18D103F023
:101AE8007063E26AB3EB026F14D1002006E00120B4
:101AF8007047012002E0012000E0002002B070BD24
:101B08000120FBE70120F9E70120F7E70120F5E7CD
:101B18000120F3E70120F1E70038024000004742C6
:101B280008B5254B9B6803F00C03042B3FD0082B0A
:101B38003FD1214B5A6802F03F025B6813F4800FD3
:101B480012D01D4B5968C1F388111C480023A1FB12
:101B58000001FEF735FB184B5B68C3F30143013303
:101B68005B00B0FBF3F025E0134B5968C1F3881C08
:101B78004FEA4C11B1EB0C006EEB0E0E4FEA8E13D0
:101B880043EA90638101091A63EB0E03DB0043EA21
:101B98005173C90011EB0C0C43F1000399020023A7
:101BA8004FEA8C2041EA9C51FEF70AFBD3E7034831
:101BB80000E0034808BD00BF0038024040787D01BE
:101BC8000024F400002800F09B8070B50D46044600
:101BD8004F4B1B6803F007038B4208D2CBB24C4A29
:101BE8001370136803F007038B4240F08B8023685F
:101BF80013F0020F17D013F0040F04D0454A93686E
:101C080043F4E0539360236813F0080F04D0414A6B
:101C1800936843F4604393603E4A936823F0F0036B
:101C2800A1680B439360236813F0010F32D06368F7
:101C3800012B21D09A1E012A25D9364A126812F0A2
:101C4800020F61D033498A6822F0030213438B6084
:101C5800FFF796F906462F4B9B6803F00C03626862
:101C6800B3EB820F16D0FFF78BF9801B41F2883354
:101C78009842F0D9032042E0264A126812F4003F45
:101C8800E0D101203BE0234A126812F0007FD9D14D
:101C9800012034E01E4B1B6803F00703AB4207D951
:101CA800EAB21B4B1A701B6803F00703AB422DD135
:101CB800236813F0040F06D0164A936823F4E05300
:101CC800E1680B439360236813F0080F07D0114AAB
:101CD800936823F46043216943EAC1039360FFF7E3
:101CE8001FFF0C4B9B68C3F303130B4AD35CD8400C
:101CF8000A4B18600A4B1868FFF7F6F8002070BD09
:101D0800012070470120FAE70120F8E70120F6E7F3
:101D1800003C024000380240F82300080000002080
:101D280008000020014B1868704700BF0000002021
:101D380008B5FFF7F7FF044B9B68C3F38223034AF8
:101D4800D35CD84008BD00BF003802400824000812
:101D580008B5FFF7E7FF044B9B68C3F34233034A18
:101D6800D35CD84008BD00BF0038024008240008F2
:101D780010B4036A046A24F001040462846924F03C
:101D8800F00C4CEA021223F00A030B43826103624F
:101D980010BC704710B4036A046A24F0100404628B
:101DA800846924F4704C4CEA023223F0A00343EA1D
:101DB80001138261036210BC704700000368344A53
:101DC800904212D0B0F1804F0FD0A2F57C429042E1
:101DD8000BD002F58062904207D002F580629042F3
:101DE80003D002F57842904203D123F070034A6889
:101DF8001343274A90422AD0B0F1804F27D0A2F54A
:101E08007C42904223D002F5806290421FD002F5B6
:101E1800806290421BD002F57842904217D002F5BA
:101E28007052904213D002F5806290420FD002F5B2
:101E3800806290420BD0A2F59832904207D002F50A
:101E48008062904203D002F58062904203D123F46D
:101E58004073CA68134323F080034A69134303603D
:101E68008B68C3620B688362094B984203D003F501
:101E78008063984201D10B690363012343610369BD
:101E880013F0010F03D0036923F0010303617047C6
:101E98000000014040B310B5044690F83D30F3B15E
:101EA800022384F83D30214651F8040BFFF786FFE2
:101EB800012384F8463084F83E3084F83F3084F8B3
:101EC800403084F8413084F8423084F8433084F854
:101ED800443084F8453084F83D30002010BD80F847
:101EE8003C30FEF771FCDBE70120704710B48468D2
:101EF80024F47F4C42EA03220A4342EA0C0282603D
:101F080010BC704710B50468A26822F070024B68D4
:101F1800134323F007030A681343A3604B68502B4D
:101F280032D00BD9602B36D0702B43D10B698A681D
:101F3800C9680068FFF7DAFF00200FE0402B0ED0D9
:101F480001D901200AE0202B2CD003D9302B2FD126
:101F5800002003E043B3102B28D1002010BD0B68EC
:101F6800052B29D003681C6A1A6A22F001021A623A
:101F78000268936923F0F003096943EA0113936146
:101F880003681C620020E9E70A6989680068FFF7AE
:101F9800EFFE0020E2E70A6989680068FFF7FAFEA9
:101FA8000020DBE70020D9E70020D7E70120D5E7AC
:101FB8000120D3E70120D1E70120CFE790F83C309A
:101FC800012B22D010B50446012380F83C300223AF
:101FD80080F83D30FFF796FF80B92268D36823F078
:101FE8004003D3602268D36823F48043D36001237D
:101FF80084F83D30002384F83C3010BD012084F87B
:102008003D00002384F83C30F7E7022070470000C9
:1020180090F83C30012B3CD010B4012380F83C30C0
:10202800022380F83D3003685A689C6822F0700CDF
:102038000A6842EA0C025A600368174A93421AD0A7
:10204800B3F1804F17D0A2F57C42934213D002F52A
:10205800806293420FD002F5806293420BD002F562
:102068007842934207D002F57052934203D0A2F50A
:102078009432934204D124F080044A6814439C604B
:10208800012380F83D30002380F83C30184610BC0E
:1020980070470220704700BF0000014038B5044671
:1020A8000268136923F44053C1680B4313618368C2
:1020B8000269134342691343C2691A430168CB6832
:1020C80023F4164323F00C031343CB6002685369CF
:1020D80023F4407381690B4353610368314A934287
:1020E80006D002F58062934202D0FFF721FE01E09C
:1020F800FFF72EFEE369B3F5004F29D0002103183E
:1021080049411B1841F10001C90041EA5371DB0044
:10211800181863684FEA83024FEA937341F100018C
:10212800FEF74EF8204DA5FB00325109642303FB4E
:1021380011031B013233A5FB03235B0903F0F002F3
:1021480002EB011203F00F03216813448B6038BDC2
:102158000023021843EB0301121841F10001C900E2
:1021680041EA5271D200101841F1000162689218D8
:102178005B41FEF725F80C4DA5FB0032510964239D
:1021880003FB1103DB003233A5FB03235B095A0071
:1021980002F4F87202EB011203F0070321681344FA
:1021A8008B60D4E7001001401F85EB5160B310B578
:1021B800044690F8413013B3242384F84130226850
:1021C800D36823F40053D3602046FFF767FF2268E3
:1021D800136923F4904313612268536923F02A0397
:1021E80053612268D36843F40053D36000206064CD
:1021F800202384F8413084F84230606310BD80F8B1
:102208004030FEF755FBD7E70120704770B50D4EFB
:102218000D4D761BB61006D0002455F8043B01344A
:102228009847A642F9D1094E094D761B00F0D4F81B
:10223800B61006D0002455F8043B01349847A6424E
:10224800F9D170BD24240008242400082C24000897
:1022580024240008830730B548D0541E002A3FD0F4
:10226800CAB2034601E0013C3AD303F8012B9D07AB
:10227800F9D1032C2DD9CDB245EA05250F2C45EA15
:10228800054536D9A4F1100222F00F0C03F1200EF7
:10229800E6444FEA121C03F1100242E9045542E9F0
:1022A800025510327245F8D10CF1010214F00C0FEE
:1022B80003EB021204F00F0C13D0ACF1040323F06B
:1022C80003030433134442F8045B9342FBD10CF03C
:1022D80003042CB1CAB21C4403F8012B9C42FBD165
:1022E80030BD64461346002CF4D1F9E70346144682
:1022F800BFE71A46A446E0E7024B13B1024800F0D4
:1023080005B870470000000021230008002301469B
:102318001A46184600F01AB838B5084B084D5B1B2A
:102328009C1007D0043B1D44013C55F804399847DC
:10233800002CF9D1BDE8384000F054B8302400082A
:102348002C240008704700BF704700BF2DE9F047F4
:10235800DFF87CA00646DAF8000098460F4691465A
:10236800FFF7F0FF1B4B1B68D3F8484124B365689F
:102378001F2D26DC5EB96B1C0235DAF8000063609D
:1023880044F82570FFF7E0FF0020BDE8F08704EB74
:1023980085010123C1F88890D4F88821AB401A43FD
:1023A800022EC4F88821C1F80881E4D1D4F88C2120
:1023B8001343C4F88C31DEE703F5A674C3F848412B
:1023C800D5E7DAF80000FFF7BFFF4FF0FF30DCE792
:1023D8003804002018240008F8B500BFF8BC08BC71
:1023E8009E467047F8B500BFF8BC08BC9E467047CB
:1023F80000000000000000000102030406070809AD
:102408000000000001020304000610160006101662
:042418001000002090
:08241C00DCDDFF7F0100000080
:0824240001230008AD010008CE
:04242C00890100081A
:102430000024F40001000000100000000000000073
:1024400000000000FC02002064030020CC030020F8
:10245000000000000000000000000000000000007C
:10246000000000000000000000000000000000006C
:10247000000000000000000000000000000000005C
:10248000000000000000000000000000000000004C
:10249000000000000000000000000000000000003C
:1024A000000000000000000000000000000000002C
:1024B000000000000000000000000000000000001C
:1024C000000000000000000000000000000000000C
:1024D00000000000000000000000000000000000FC
:1024E00000000000000000000100000000000000EB
:1024F0000E33CDAB34126DE6ECDE05000B000000B0
:1025000000000000000000000000000000000000CB
:1025100000000000000000000000000000000000BB
:1025200000000000000000000000000000000000AB
:10253000000000000000000000000000000000009B
:0C2860000000000000000000B40E00208A
:040000050800092DB9
:00000001FF
