:020000040800F2
:1000000000000220490B00083509000837090008E4
:10001000390900083B0900083D09000800000000FC
:100020000000000000000000000000003F09000880
:1000300041090008000000004309000845090008C4
:10004000990B0008990B0008990B0008990B000800
:10005000990B0008990B0008990B0008990B0008F0
:10006000990B0008990B00084D090008990B00082E
:10007000990B0008990B0008990B0008990B0008D0
:10008000990B0008990B0008990B0008990B0008C0
:10009000990B0008990B0008990B0008990B0008B0
:1000A000990B0008990B0008990B0008990B0008A0
:1000B000990B0008990B0008990B0008990B000890
:1000C000990B0008990B0008990B0008990B000880
:1000D000990B0008990B0008990B0008990B000870
:1000E000990B0008990B0008990B0008990B000860
:1000F000990B0008990B0008990B0008990B000850
:10010000990B0008990B0008990B0008990B00083F
:10011000990B0008990B0008990B0008990B00082F
:10012000990B0008990B0008990B0008990B00081F
:10013000990B0008990B0008990B0008990B00080F
:10014000990B0008990B0008990B0008990B0008FF
:10015000990B0008990B000859090008990B000831
:10016000990B0008990B0008990B0008990B0008DF
:10017000990B0008990B0008990B0008000000007B
:08018000990B0008990B00081F
:1001880010B5054C237833B9044B13B10448AFF3C9
:1001980000800123237010BD8404002000000000AB
:1001A800502B000808B5034B1BB103490348AFF3B4
:1001B800008008BD0000000088040020502B0008C3
:1001C80053B94AB9002908BF00281CBF4FF0FF31B6
:1001D8004FF0FF3000F074B9ADF1080C6DE904CEB2
:1001E80000F006F8DDF804E0DDE9022304B070470A
:1001F8002DE9F047089E0D4604468846002B4DD150
:100208008A42944668D9B2FA82F252B101FA02F3EC
:10021800C2F1200120FA01F10CFA02FC41EA0308BC
:1002280094404FEA1C45210CB8FBF5FE1FFA8CF7E9
:1002380005FB1E8341EA03430EFB07F199420BD9E4
:100248001CEB03030EF1FF3080F01E81994240F24F
:100258001B81AEF1020E63445B1AA4B2B3FBF5F046
:1002680005FB103344EA034400FB07F7A7420AD909
:100278001CEB040400F1FF3380F00881A74240F230
:10028800058164440238E41B40EA0E4000211EB197
:10029800D4400023C6E90043BDE8F0878B4208D963
:1002A800002E00F0EE800021C6E900050846BDE8F2
:1002B800F087B3FA83F100294AD1AB4202D38242D4
:1002C80000F2F980841A65EB030301209846002E9A
:1002D800E2D0C6E90048DFE702B9FFDEB2FA82F2EF
:1002E800002A40F09180A1EB0C054FEA1C471FFA49
:1002F8008CFE0121B5FBF7F307FB1350250C45EAEB
:1003080000450EFB03F0A84208D91CEB050503F1D4
:10031800FF3802D2A84200F2CB8043462D1AA4B27D
:10032800B5FBF7F007FB105544EA05440EFB00FE49
:10033800A64508D91CEB040400F1FF3502D2A645F6
:1003480000F2BB802846A4EB0E0440EA03409EE777
:10035800C1F120078B4022FA07FC4CEA030C20FA73
:1003680007F405FA01F31C43FD404FEA1C4900FA63
:1003780001F3B5FBF9F8200C1FFA8CFE09FB1855A0
:1003880040EA054508FB0EF0A84202FA01F20BD933
:100398001CEB050508F1FF3A80F08880A84240F27E
:1003A8008580A8F1020865442D1AA4B2B5FBF9F0BE
:1003B80009FB105544EA054500FB0EFEAE4508D979
:1003C8001CEB050500F1FF346CD2AE456AD9023842
:1003D800654440EA0840A0FB0294A5EB0E05A5423F
:1003E800C846A64656D353D05EB1B3EB080265EBB8
:1003F8000E0505FA07F722FA01F3CD401F43C6E9B7
:1004080000750021BDE8F087C2F1200320FA03F14E
:100418000CFA02FC25FA03F395400D434FEA1C47FA
:100428001FFA8CFEB3FBF7F107FB11302B0C43EAE4
:10043800004301FB0EF0984204FA02F408D91CEBC1
:10044800030301F1FF382FD298422DD902396344B2
:100458001B1AADB2B3FBF7F007FB103345EA0345AF
:1004680000FB0EF3AB4208D91CEB050500F1FF3881
:1004780016D2AB4214D902386544ED1A40EA01415C
:1004880038E73146304607E78646E5E61846FAE695
:100498004B45A9D2B9EB020864EB0C0E0138A3E76F
:1004A8004046EAE7204694E74146D1E7D0467BE755
:1004B800023B654432E7084609E76444023842E7EC
:1004C800704700BF00B583B000210191094B1A6B3A
:1004D80042F480021A631B6B03F480030193019BAF
:1004E8000A46462001F0D2F8462001F007F903B089
:1004F8005DF804FB0038024008B50022114646208A
:1005080001F0C4F8462001F0F9F808BD2DE9F041E2
:100518008CB000240794089409940A940B940194CD
:100528004D4B1A6B42F010021A631A6B02F010025C
:100538000192019A02941A6B42F004021A631A6B30
:1005480002F004020292029A03941A6B42F08002AB
:100558001A631A6B02F080020392039A04941A6BCE
:1005680042F001021A631A6B02F001020492049A23
:1005780005941A6B42F002021A631A6B02F0020227
:100588000592059A06941A6B42F008021A631B6BCF
:1005980003F008030693069BDFF8C08022464FF459
:1005A8004061404601F006FC2D4F22464FF4405171
:1005B800384601F0FFFB2B4E22464FF400413046EF
:1005C80001F0F8FBFF23079308940125099507A973
:1005D800254801F0FDFA102307934FF404130893FC
:1005E800099507A9304601F0F3FA4FF440630793E1
:1005F8001123089309950A9407A9404601F0E8FADF
:100608004FF480530793089509940A9407A938462C
:1006180001F0DEFA4FF40053079308950994032379
:100628000A9307A9384601F0D3FA4FF40043079319
:100638000895099402230A9307A9304601F0C8FADD
:10064800224621460A2001F021F80A2001F056F836
:100658000CB0BDE8F08100BF003802400004024041
:10066800000C0240000002400010024008B50022C1
:1006780011460A2001F00AF80A2001F03FF808BDE7
:1006880010B52B4800F0BEFE002000F0DFFD00246E
:1006980019E0284800F0ECFD00F0FCFD264A462150
:1006A8000D2000F055FF254A6A210D2000F050FF6B
:1006B800234A8E210D2000F04BFF4FF47A7000F092
:1006C800BFFF0134E4B2072C31D8072CE4D801A3CA
:1006D80053F824F09B060008FD06000805070008EB
:1006E8000D070008150700081D0700082507000862
:1006F8002D070008134800F0BBFDCDE7124800F0B5
:10070800B7FDC9E7114800F0B3FDC5E7104800F090
:10071800AFFDC1E70F4800F0ABFDBDE70E4800F0A4
:10072800A7FDB9E76FF07F4000F0A2FDB4E710BD68
:10073800400000208080FF00682B00087C2B000808
:10074800942B000880FF8000FF80800080FFFF005E
:10075800FFFF8000A3A3A300FF80FF0072B6FEE79F
:1007680000B595B03022002108A802F02BF900232B
:100778000393049305930693079301931F4A116CFF
:1007880041F080511164126C02F080520192019A7A
:1007980002931B4A116841F480411160126802F407
:1007A80080420292029A0222089201210B911021A2
:1007B8000C910E920F9308231093A8231193129271
:1007C8000423139308A801F009FB98B90F23039396
:1007D80002230493002305934FF4A05306934FF488
:1007E80080530793052103A801F046FD20B915B0F1
:1007F8005DF804FBFFF7B2FFFFF7B0FF00380240D7
:100808000070004008B500F0EFFEFFF7A9FF00F008
:100818002FFBFFF77BFEFFF755FE00F0A3F800F073
:100828003BF900F00FF800F023FBBB21044800F06F
:1008380017FBFFF761FEFFF719FFFFF721FFFCE742
:10084800A005002008B50D480D4B03604FF48273D6
:10085800436000238360C360036143614FF4007207
:100868008261C3610362436283620A23C36201F047
:10087800D9FD00B908BDFFF771FFFBE7A004002010
:10088800003C004000B589B000230393049305930E
:10089800069307930268154B9A4202D009B05DF897
:1008A80004FB0021019103F5FE331A6C42F4004267
:1008B8001A641A6C02F400420192019A02911A6BAE
:1008C80042F002021A631B6B03F002030293029BBD
:1008D80028230393022304930323069306230793F1
:1008E80003A9034801F074F9D8E700BF003C0040B1
:1008F8000004024082B0002100910B4B5A6C42F474
:1009080080425A645A6C02F480420092009A019123
:100918001A6C42F080521A641B6C03F080530193E6
:10092800019B02B0704700BF00380240FEE7FEE7B7
:10093800FEE7FEE7FEE770477047704708B500F02E
:100948006DFE08BD08B5102001F03AFA08BD000098
:1009580008B5024801F020F808BD00BFF8040020DF
:100968007047000000B589B00023039304930593F2
:1009780006930793019302931848194A02604FF6A9
:10098800FF7242608360C26003614361836101F06A
:1009980039FEC8B906230393702304934FF4004328
:1009A800059300230693079303A90C4801F0BEFEA4
:1009B80068B900230193029301A9084801F0E0FEF9
:1009C80040B909B05DF804FBFFF7C8FEE2E7FFF79E
:1009D800C5FEEEE7FFF7C2FEF3E700BF58050020AB
:1009E8000004014030B589B00023039304930593B4
:1009F80006930793026803F1804303F582339A4212
:100A080001D009B030BD04460025019503F59A339D
:100A18005A6C42F002025A645A6C02F002020192C5
:100A2800019A02951A6B42F001021A631B6B03F0DC
:100A380001030293029B01230393022304930323DC
:100A4800079303A9114801F0C3F81148114B03603B
:100A58004FF0606343608560C5604FF48063036155
:100A680045618561C5614FF440330362456200F01A
:100A7800E5FE38B9064B23639C63A3639C636363F9
:100A88009C63BEE7FFF76AFEF4E700BF0000024080
:100A9800F8040020B864024008B50A480A4B03600D
:100AA8004FF4FA23436000238360C36003610C2280
:100AB80042618361C36101F031FF00B908BDFFF7EE
:100AC8004DFEFBE7A00500200010014000B589B0ED
:100AD800002303930493059306930793026803F195
:100AE800804303F588339A4202D009B05DF804FBCD
:100AF8000021019103F594335A6C42F010025A64B4
:100B08005A6C02F010020192019A02911A6B42F09B
:100B180001021A631B6B03F001030293029B4FF45B
:100B2800C0630393022304930323069307230793C5
:100B380003A9024801F04CF8D7E700BF00000240C3
:100B4800DFF834D0FFF70CFF0C480D490D4A00239D
:100B580002E0D458C4500433C4188C42F9D30A4A6A
:100B68000A4C002301E013600432A242FBD301F0D7
:100B780005FFFFF747FE7047000002200000002035
:100B880084040020F48000088404002068100020F9
:100B9800FEE70000044B01221A70044B1A68D36860
:100BA80023F48043D3607047440800205805002090
:100BB80008B580221221212000F056FA322000F0D8
:100BC8003FFD09E001220B21212000F061FA854B4D
:100BD8001870012000F034FD824B1B78212BF1D1D5
:100BE800C1220D21212000F03FFA012211212120EC
:100BF80000F03AFA03220921212000F035FAD02228
:100C08000C21212000F030FA40221221212000F08E
:100C18002BFA3F221721212000F026FA5022182112
:100C2800212000F021FA03221921212000F01CFACA
:100C380078221A21212000F017FA002232212120DF
:100C480000F012FA0A22A021212000F00DFAE02279
:100C58006321212000F008FAFF22AC21212000F0B6
:100C680003FA0C226521212000F0FEF900226621FA
:100C7800212000F0F9F900226721212000F0F4F981
:100C880014222921212000F0EFF91E222C212120F5
:100C980000F0EAF901222821212000F0E5F91022CC
:100CA8002A21212000F0E0F91F222B21212000F029
:100CB800DBF90C227E21212000F0D6F916227F21B3
:100CC800212000F0D1F92A228021212000F0CCF93E
:100CD8004E228121212000F0C7F9612282212120A2
:100CE80000F0C2F96F228321212000F0BDF97B2298
:100CF8008421212000F0B8F986228521212000F0E6
:100D0800B3F98E228621212000F0AEF9972287219F
:100D1800212000F0A9F9A4228821212000F0A4F9BB
:100D2800AF228921212000F09FF9C5228A212120A4
:100D380000F09AF9D7228B21212000F095F9E822BA
:100D48008C21212000F090F920228D21212000F013
:100D58008BF900224A21212000F086F9132249212B
:100D6800212000F081F908224721212000F07CF998
:100D780014224B21212000F077F917224C21212041
:100D880000F072F905224621212000F06DF9992220
:100D98002221212000F068F903222321212000F0DC
:100DA80063F90422A621212000F05EF900229B218C
:100DB800212000F059F940229C21212000F054F90B
:100DC8000622AB21212000F04FF911229E2121207B
:100DD80000F04AF902229F21212000F045F9012064
:100DE80008BD00BFE805002008B5074B1A68D3689E
:100DF80043F48043D3604FF41673044A044905480A
:100E080000F082FD08BD00BF58050020EC05002059
:100E180010100240F804002008B502E00B4800F06A
:100E2800A8FD0B4A0021094800F0A4FE0028F5D1CE
:100E38004FF41673074A0849044800F065FD074B4C
:100E48001A68D36843F48043D36008BDF8040020CF
:100E58009D0B0008EC0500201010024058050020EA
:100E680003681A6812F0400FFAD059607047000002
:100E780008B5FFF79DFE012803D0FFF7CDFF00203E
:100E880008BD41210148FFF7EBFFF6E7A005002068
:100E980010B5104C00224FF48061204600F08AFF04
:100EA80001224FF48061204600F084FF236913F487
:100EB800006F07D100224FF48061064800F07AFFE6
:100EC800012010BD00224FF48061204600F072FF1F
:100ED8000020F6E70004024010B50D4C01224FF443
:100EE8000061204600F066FF01224FF48061204631
:100EF80000F060FF00224FF40061204600F05AFF26
:100F080000224FF48061204600F054FF10BD00BF5E
:100F18000004024010B50D4C00224FF40061204639
:100F280000F048FF00224FF48061204600F042FFA5
:100F380001224FF48061204600F03CFF01224FF46B
:100F48000061204600F036FF10BD00BF00040240DB
:100F580010B5044600224FF480610F4800F02AFFC4
:100F68009CB100224FF400610B4800F023FF0A4CAB
:100F780001224FF48061204600F01CFF00224FF44C
:100F88008061204600F016FF10BD01224FF4006179
:100F9800014800F00FFFEAE70004024070B504467C
:100FA800082215E000224FF40061114800F002FF0A
:100FB8006400E4B20E4E01224FF48061304600F026
:100FC800F9FE00224FF48061304600F0F3FE2A4615
:100FD800531EDDB24AB114F0800FE3D001224FF462
:100FE8000061034800F0E6FEE2E7FFF751FF70BD3D
:100FF80000040240F8B507461A4C00224FF48061FD
:10100800204600F0D7FE01224FF40061204600F090
:10101800D1FE0024254601E00135EDB2072D15D893
:10102800104E00224FF48061304600F0C3FE0122CA
:101038004FF48061304600F0BDFE6400E4B23369CD
:1010480013F4006FE8D00134E4B2E5E700224FF46E
:101058008061044800F0AEFE3846FFF779FF20466D
:10106800F8BD00BF0004024070B504460E461546A0
:10107800FFF732FF640004F0FE00FFF78FFF3046F1
:10108800FFF78CFF2846FFF789FFFFF743FF70BD86
:1010980070B504460E461546FFF71EFF600000F0C7
:1010A800FE00FFF77BFF3046FFF778FF012D0FD0DA
:1010B800FFF712FF600040F00100C0B2FFF76EFFBB
:1010C8000020FFF797FF0446FFF724FF204670BD76
:1010D800FFF720FFECE7000010B504460E4B1B6835
:1010E8009B6813F0800FF9D100224FF400510B4890
:1010F80000F060FE084B1B68DC609A6812F0020F73
:10110800FBD09A6812F0800FFBD101224FF40051F6
:10111800024800F04FFE10BDA0040020000C024061
:10112800064B1B68020ADA609A6812F0020FFBD0BD
:10113800D8609A6812F0020FFBD07047A004002014
:1011480010B4224B1C68226822F040021204120CD0
:1011580022601C68226842F4006222601A681368E0
:1011680043F0400313601A4B4FF000429A614FF06E
:10117800000C0AE0154B1A6830F81C30D3609368ED
:1011880013F0020FFBD00CF1010C6145F2D80F4BA4
:101198001B689A6812F0800FF9D10D4A4FF400418C
:1011A80091611A6822F040021204120C1A60074A70
:1011B80011680B6823F400631B041B0C0B60126896
:1011C800136843F04003136010BC7047A00400206C
:1011D800000002402DE9F04180460E4617461D46A4
:1011E800174B4FF000429A612A20FFF775FF154C04
:1011F800A37B03EB080080B2FFF792FFA07B384483
:1012080080B2FFF78DFF2B20FFF766FFE07B3044AD
:1012180080B2FFF785FFE07B284480B2FFF780FFAC
:101228002C20FFF759FF084B1B689B6813F0800FB1
:10123800F9D1034B4FF400429A61BDE8F08100BF39
:101248000000024048080020A0040020C0F30F233B
:1012580003F47843C0F34F1202F4FC62C0F3C400F5
:1012680013431843014B1860704700BF480800201B
:10127800C0F30F2303F47843C0F34F1202F4FC6267
:10128800C0F3C40013431843014B5860704700BFB4
:101298004808002008B5294B5A899B89013B013A27
:1012A8009BB292B200210846FFF794FF244B1968BD
:1012B8000A6822F040021204120C0A6019680A68CF
:1012C80042F400620A601A68136843F0400313602E
:1012D8001C4B4FF000429A61002109E0184B1A6834
:1012E800164B5B68D360936813F0020FFBD0013193
:1012F800124A5389928902FB03F38B42EED8104BB2
:101308001B689A6812F0800FF9D10E4A4FF4004119
:1013180091611A6822F040021204120C1A60084AFD
:1013280011680B6823F400631B041B0C0B60126824
:10133800136843F04003136008BD00BF480800204D
:10134800A0040020000002402DE9F0418846A2F1E7
:101358002007FFB2274B4FF000429A6100239E46B8
:101368001E4621E0244A5168244A22F81E106408C7
:101378000EF1010E1FFA8EFE01339BB2AA889A4223
:101388000FD00CF1010C1FFA8CFCBCF1070F09D827
:1013980014F0010FE6D0184A1168184A22F81E10F6
:1013A800E5E700230136B6B2154A15682C89B44220
:1013B80006D92A6804FB0764145D4FF0000CE4E7C3
:1013C800AA88024492B2EB8843449BB2013B013A9B
:1013D8009BB292B24146FFF7FDFE094B1B68998804
:1013E800DB8811FB03F189B20448FFF7A9FEBDE8C9
:1013F800F08100BF00000240480800205C0800207F
:1014080058080020134B186083880C3B142B1FD8F6
:10141800DFE803F00B1E1E1E0F1E1E1E131E1E1ECF
:10142800171E1E1E1E1E1E1E1B000B4B0B4A1A608B
:101438007047094B0A4A1A607047074B094A1A60F5
:101448007047054B084A1A607047034B074A1A60F1
:10145800704700BF5C1000205808002004000020DE
:10146800100000201C00002028000020340000206C
:101478002DE9F843804689460026344604E00234C4
:10148800A4B26B89A34211D92E4B1D682F682B89F2
:1014980004FB033317F803E092F800C0E645EED1E9
:1014A8000133FF5C53789F42E9D1264600231F464B
:1014B8001A4620E024494868244921F812000132DC
:1014C80092B2640801339BB2B5F804C09C450FD0B2
:1014D8000EF1010E1FFA8EFEBEF1070F09D814F0A7
:1014E800010FE7D018490868184921F81200E6E703
:1014F80000230137BFB2B5F808C0BC4507D92C682E
:101508000CFB067C14F80C404FF0000EE4E7AA88A8
:10151800424492B2EB884B449BB2013B013A9BB2E6
:1015280092B249464046FFF755FE064B1B6899881C
:10153800DB8811FB03F189B20448FFF701FEBDE81F
:10154800F88300BF5C100020480800205C080020D9
:1015580070B505460E46144609E031462846FFF7A1
:10156800F3FE0C4B1B6898880544ADB20134227811
:1015780072B112F0800FF0D0224631462846FFF7AC
:1015880077FF054B1B6898880544ADB20234EEE737
:1015980070BD00BF580800205C10002010B504463C
:1015A8000E4B18784FF47A73B3FBF0F30C4A1068BB
:1015B800B0FBF3F000F0B0F868B90F2C01D90120A6
:1015C8000AE0002221464FF0FF3000F05FF8054B9B
:1015D8001C60002000E0012010BD00BF4C0000206E
:1015E800000000205000002008B50B4B1A6842F498
:1015F80000721A601A6842F480621A601A6842F42B
:1016080080721A60032000F02FF80020FFF7C6FF51
:10161800FFF770F9002008BD003C0240034A11683A
:10162800034B1B780B441360704700BF6010002009
:101638004C000020014B1868704700BF6010002064
:1016480038B50446FFF7F6FF0546B4F1FF3F02D070
:10165800044B1B781C44FFF7EDFF401BA042FAD354
:1016680038BD00BF4C000020074AD36823F4E0636C
:101678001B041B0C000200F4E060034343F0BF634B
:1016880043F40033D360704700ED00E000B5194B18
:10169800DB68C3F30223C3F1070CBCF1040F28BFB6
:1016A8004FF0040C03F1040EBEF1060F18D9033BEA
:1016B8004FF0FF3E0EFA0CFC21EA0C0199400EFA9D
:1016C80003F322EA0303194300280BDB0901C9B21B
:1016D80000F1604000F5614080F800135DF804FBFC
:1016E8000023E5E700F00F000901C9B2024B1954C5
:1016F800F4E700BF00ED00E014ED00E0002807DB90
:1017080000F01F02400901239340024A42F82030AA
:10171800704700BF00E100E00138B0F1807F0BD2D4
:101728004FF0E0235861054AF02182F82310002089
:10173800986107221A6170470120704700ED00E0A8
:1017480030B405682C6824F480242C600468636035
:101758008368402B05D0036899600368DA6030BC61
:10176800704703689A600368D960F8E710B40368A3
:10177800D9B210390B4AA2FB014212090A4CA25CE9
:10178800C2655F2908D923F47F7323F00303043368
:101798008365806D10BC704723F47F7323F00303C7
:1017A8008365F6E7ABAAAAAAD4800008836A82698F
:1017B80092B9012B0AD0022B02D00BB1002070473E
:1017C800C36A13F0807F28D100207047C36AB3F141
:1017D800C07F24D000207047B2F5005F09D0022BEB
:1017E80025D9032B25D1C36A13F0807F23D100208C
:1017F8007047032B03D8DFE803F01404140A002011
:101808007047C36A13F0807F0DD100207047C36A08
:10181800B3F1C07F09D00020704701207047012034
:101828007047012070470120704701207047012050
:1018380070470020704701207047000070B50446CB
:10184800FFF7F8FE002C5BD00546022384F83530FC
:10185800002384F834302268136823F001031360EE
:1018680023681A6812F0010F0AD0FFF7E3FE431B42
:10187800052BF5D920236365032084F8350070BD56
:101888001A68204810406168A2680A43E1680A4360
:1018980021690A4361690A43A1690A43E1690A4364
:1018A800216A0A430243616A04291ED01A60266825
:1018B800756925F00705636A1D43042B07D1A36AE0
:1018C8001D43E36A1BB12046FFF770FF90B97561AD
:1018D8002046FFF74BFFE26D3F23934083600020D3
:1018E8006065012384F83530C9E7E16A206B01435C
:1018F8000A43DBE740236365012084F83500BEE72F
:101908000120BCE73F8010F038B50446856D90F89B
:10191800340001282BD0012084F8340094F83500D5
:10192800C0B2012804D0002384F83430022038BD26
:10193800022084F83500002060652046FFF700FF8C
:10194800E26D3F239340AB602268136843F01603AF
:101958001360236C23B12268136843F008031360F3
:101968002268136843F0010313600020DFE70220B8
:10197800DDE790F83530DBB2022B03D080234365D6
:1019880001207047052380F835300268136823F07A
:101998000103136000207047F0B583B004460023AC
:1019A8000193724B1D68724BA3FB0535AD0A876D19
:1019B8003E68C26D08239340334210D003681A680A
:1019C80012F0040F0BD01A6822F004021A60C26DDC
:1019D80008239340BB60436D43F001034365E26D08
:1019E80001239340334209D02268526912F0800FD4
:1019F80004D0BB60636D43F002036365E26D0423AA
:101A08009340334209D02268126812F0020F04D0C2
:101A1800BB60636D43F004036365E26D102393407C
:101A2800334224D02268126812F0080F1FD0BB601E
:101A380023681A6812F4802F0DD01B6813F4002F46
:101A480004D1236C9BB12046984710E0A36C73B176
:101A5800204698470BE01A6812F4807F03D11A6871
:101A680022F008021A60236C0BB120469847E26DF9
:101A780020239340334255D02268126812F0100F89
:101A880050D0BB6094F83530DBB2052B0ED02368FC
:101A98001A6812F4802F33D01B6813F4002F2AD150
:101AA800636C002B3ED0204698473BE022681368C1
:101AB80023F0160313602268536923F080035361EF
:101AC800236CA3B12268136823F008031360E26D46
:101AD8003F239340BB60012384F83530002384F80A
:101AE8003430236D002B3FD0204698473CE0A36C50
:101AF800002BE7D1EBE7E36BA3B12046984711E051
:101B08001A6812F4807F09D11A6822F010021A604C
:101B1800012384F83530002384F83430E36B0BB1AB
:101B280020469847636DFBB1636D13F0010F17D022
:101B3800052384F835302268136823F00103136005
:101B4800019B01330193AB4204D823681B6813F04F
:101B5800010FF5D1012384F83530002384F834309F
:101B6800E36C0BB12046984703B0F0BD000000209D
:101B7800B5814E1B034690F83400012825D001207A
:101B880083F8340093F83500C0B2012804D001204E
:101B9800002283F8342070470529F9D8DFE801F0DE
:101BA8000306090C0F12DA630846F1E71A640020ED
:101BB800EEE75A640020EBE79A640020E8E7DA646D
:101BC8000020E5E71A650020E2E7022070470000E0
:101BD80000230F2B00F2E48070B582B060E08568C6
:101BE8005E000324B44025EA0405CC68B4402C43C5
:101BF8008460456825EA02054C68C4F300129A40DF
:101C08002A4342605AE0DC08083450F8246003F0A4
:101C1800070295000F22AA4026EA020E0A69AA4086
:101C280042EA0E0240F824205CE0072200E000228D
:101C380002FA0EF22A4302345A4D45F824205A4A31
:101C480094686FEA0C0224EA0C054E6816F4801FAB
:101C580001D04CEA0405544CA560E46802EA040586
:101C68004E6816F4001F01D04CEA04054E4CE5609E
:101C7800646802EA04054E6816F4003F01D04CEA95
:101C88000405494C6560246822404D6815F4803F7E
:101C980001D04CEA0402444C226001330F2B7DD85A
:101CA80001229A400C6804EA020C32EA0404F4D1D6
:101CB8004C6804F00304013C012C90D94A6802F0F6
:101CC8000302032A09D0C4685D000322AA4024EA5B
:101CD80002048A68AA402243C2604A6802F00302EA
:101CE800022A90D004684FEA430E032202FA0EF249
:101CF80024EA02044A6802F0030202FA0EF22243BE
:101D080002604A6812F4403FC7D000220192274A75
:101D1800546C44F480445464526C02F4804201923E
:101D2800019A9C08A51C1F4A52F8255003F003028B
:101D38004FEA820E0F2202FA0EF225EA02051C4A29
:101D480090423FF474AF02F5806290421AD002F5D7
:101D58008062904218D002F58062904216D002F557
:101D68008062904214D002F58062904212D002F54F
:101D78008062904210D002F5806290423FF455AFE5
:101D8800082255E7012253E7022251E703224FE7D1
:101D980004224DE705224BE7062249E702B070BD51
:101DA800704700BF00380140003C01400038024045
:101DB800000002400AB181617047090481617047DF
:101DC80008B5054B5B69034200D108BD024B586159
:101DD800FFF70AF8F9E700BF003C0140002800F0CF
:101DE800E08170B582B00446036813F0010F3BD060
:101DF8009F4B9B6803F00C03042B2CD09C4B9B68D7
:101E080003F00C03082B21D06368B3F5803F4FD053
:101E1800B3F5A02F52D0964B1A6822F480321A607C
:101E28001A6822F480221A606368002B50D0FFF7EA
:101E380001FC05468E4B1B6813F4003F14D1FFF7D5
:101E4800F9FB401B6428F5D90320B1E1884B5B6896
:101E580013F4800FD8D0864B1B6813F4003F03D0CF
:101E68006368002B00F09F81236813F0020F54D0A1
:101E78007F4B9B6813F00C0F3ED07D4B9B6803F0A3
:101E88000C03082B33D0E368002B68D0794B012270
:101E98001A60FFF7CFFB0546754B1B6813F0020F5E
:101EA80054D1FFF7C7FB401B0228F5D903207FE177
:101EB8006F4A136843F480331360B5E76C4B1A68B4
:101EC80042F480221A601A6842F480321A60ABE742
:101ED800FFF7B0FB0546664B1B6813F4003FC3D001
:101EE800FFF7A8FB401B6428F5D9032060E1604B8D
:101EF8005B6813F4800FC6D15D4B1B6813F0020FAB
:101F080003D0E368012B40F05081594A136823F04D
:101F1800F803216943EAC1031360236813F0080F2B
:101F280042D063696BB3534B0122C3F8802EFFF78D
:101F380081FB05464E4B5B6F13F0020F34D1FFF760
:101F480079FB401B0228F5D9032031E1484A136880
:101F580023F0F803216943EAC1031360DDE7454B29
:101F680000221A60FFF766FB0546414B1B6813F019
:101F7800020FD2D0FFF75EFB401B0228F5D90320E1
:101F880016E13C4B0022C3F8802EFFF753FB0546B1
:101F9800374B5B6F13F0020F06D0FFF74BFB401B6C
:101FA8000228F5D9032003E1236813F0040F77D042
:101FB8002F4B1B6C13F0805F33D1002301932C4B04
:101FC8001A6C42F080521A641B6C03F08053019320
:101FD800019B0125284B1B6813F4807F23D0A3683D
:101FE800012B34D0052B38D0214B1A6F22F0010277
:101FF8001A671A6F22F004021A67A368002B3DD0F3
:10200800FFF718FB06461A4B1B6F13F0020F46D159
:10201800FFF710FB801B41F288339842F3D9032065
:10202800C6E00025D6E7144A136843F480731360AA
:10203800FFF700FB0646104B1B6813F4807FCED1D8
:10204800FFF7F8FA801B0228F5D90320B0E0084A08
:10205800136F43F001031367CFE7054B1A6F42F084
:1020680004021A671A6F42F001021A67C5E700BF37
:10207800003802400000474200700040FFF7DAFADB
:102088000646524B1B6F13F0020F08D0FFF7D2FA27
:10209800801B41F288339842F3D9032088E0EDB9D8
:1020A800A369002B00F08380484A926802F00C0272
:1020B800082A51D0022B17D0454B00221A66FFF789
:1020C800B9FA0446414B1B6813F0007F42D0FFF772
:1020D800B1FA001B0228F5D9032069E03B4A136CCA
:1020E80023F080531364DBE7394B00221A66FFF7AD
:1020F800A1FA0546354B1B6813F0007F06D0FFF7A1
:1021080099FA401B0228F5D9032051E0E369226AB5
:102118001343626A43EA8213A26A5208013A43EA05
:102128000243E26A43EA0263284A5360284B0122C9
:102138001A66FFF77FFA0446244B1B6813F0007FEA
:1021480006D1FFF777FA001B0228F5D903202FE004
:1021580000202DE000202BE0012B2BD01B4B5B68CF
:1021680003F48001E269914226D103F03F02216A1B
:102178008A4223D1616A47F6C0721A40B2EB811FC6
:102188001ED103F44031A26A5208013AB1EB024F62
:1021980018D103F07063E26AB3EB026F14D1002028
:1021A80006E001207047012002E0012000E0002045
:1021B80002B070BD0120FBE70120F9E70120F7E735
:1021C8000120F5E70120F3E70120F1E7003802409C
:1021D8000000474208B5254B9B6803F00C03042B0D
:1021E8003FD0082B3FD1214B5A6802F03F025B6871
:1021F80013F4800F12D01D4B5968C1F388111C4885
:102208000023A1FB0001FDF7DBFF184B5B68C3F35C
:10221800014301335B00B0FBF3F025E0134B596831
:10222800C1F3881C4FEA4C11B1EB0C006EEB0E0E9B
:102238004FEA8E1343EA90638101091A63EB0E0398
:10224800DB0043EA5173C90011EB0C0C43F10003A6
:10225800990200234FEA8C2041EA9C51FDF7B0FF18
:10226800D3E7034800E0034808BD00BF0038024038
:1022780040787D010024F400002800F09B8070B5B0
:102288000D4604464F4B1B6803F007038B4208D2E8
:10229800CBB24C4A1370136803F007038B4240F02B
:1022A8008B80236813F0020F17D013F0040F04D0AB
:1022B800454A936843F4E0539360236813F0080F8A
:1022C80004D0414A936843F4604393603E4A93685C
:1022D80023F0F003A1680B439360236813F0010F08
:1022E80032D06368012B21D09A1E012A25D9364A9B
:1022F800126812F0020F61D033498A6822F0030293
:1023080013438B60FFF796F906462F4B9B6803F043
:102318000C036268B3EB820F16D0FFF78BF9801BB2
:1023280041F288339842F0D9032042E0264A1268E5
:1023380012F4003FE0D101203BE0234A126812F07A
:10234800007FD9D1012034E01E4B1B6803F007033E
:10235800AB4207D9EAB21B4B1A701B6803F007039C
:10236800AB422DD1236813F0040F06D0164A9368A8
:1023780023F4E053E1680B439360236813F0080FDC
:1023880007D0114A936823F46043216943EAC103E3
:102398009360FFF71FFF0C4B9B68C3F303130B4AB3
:1023A800D35CD8400A4B18600A4B1868FFF7F6F858
:1023B800002070BD012070470120FAE70120F8E7EE
:1023C8000120F6E7003C024000380240A82B000834
:1023D8000000002050000020014B1868704700BF23
:1023E8000000002008B5FFF7F7FF044B9B68C3F314
:1023F8008223034AD35CD84008BD00BF003802409E
:10240800B82B000808B5FFF7E7FF044B9B68C3F338
:102418004233034AD35CD84008BD00BF00380240AD
:10242800B82B000800285AD010B50446436A33B9BF
:102438004368B3F5827F05D00023C36102E000231F
:10244800036143610023A36294F85130002B40D00C
:10245800022384F851302268136823F04003136084
:10246800636803F48273A26802F404421343E268C7
:1024780002F400621343226902F002021343626904
:1024880002F001021343A26902F400721343E269E5
:1024980002F038021343226A02F080021343A26A50
:1024A80002F40052216813430B60638B03F00403AA
:1024B800626A02F01002216813434B602268D369F4
:1024C80023F40063D36100206065012384F8513050
:1024D80010BD84F850302046FEF7D4F9B8E7012043
:1024E800704710B4036A046A24F001040462846922
:1024F80024F0F00C4CEA021223F00A030B43826129
:10250800036210BC704710B4036A046A24F0100414
:102518000462846924F4704C4CEA023223F0A0036C
:1025280043EA01138261036210BC70470368344AAE
:10253800904212D0B0F1804F0FD0A2F57C42904269
:102548000BD002F58062904207D002F5806290427B
:1025580003D002F57842904203D123F070034A6811
:102568001343274A90422AD0B0F1804F27D0A2F5D2
:102578007C42904223D002F5806290421FD002F53F
:10258800806290421BD002F57842904217D002F543
:102598007052904213D002F5806290420FD002F53B
:1025A800806290420BD0A2F59832904207D002F593
:1025B8008062904203D002F58062904203D123F4F6
:1025C8004073CA68134323F080034A6913430360C6
:1025D8008B68C3620B688362094B984203D003F58A
:1025E8008063984201D10B69036301234361036946
:1025F80013F0010F03D0036923F00103036170474F
:102608000000014040B310B5044690F83D30F3B1E6
:10261800022384F83D30214651F8040BFFF786FF6A
:10262800012384F8463084F83E3084F83F3084F83B
:10263800403084F8413084F8423084F8433084F8DC
:10264800443084F8453084F83D30002010BD80F8CF
:102658003C30FEF7C7F9DBE70120704710B4846807
:1026680024F47F4C42EA03220A4342EA0C028260C5
:1026780010BC704710B50468A26822F070024B685D
:10268800134323F007030A681343A3604B68502BD6
:1026980032D00BD9602B36D0702B43D10B698A68A6
:1026A800C9680068FFF7DAFF00200FE0402B0ED062
:1026B80001D901200AE0202B2CD003D9302B2FD1AF
:1026C800002003E043B3102B28D1002010BD0B6875
:1026D800052B29D003681C6A1A6A22F001021A62C3
:1026E8000268936923F0F003096943EA01139361CF
:1026F80003681C620020E9E70A6989680068FFF737
:10270800F0FE0020E2E70A6989680068FFF7FBFE2F
:102718000020DBE70020D9E70020D7E70120D5E734
:102728000120D3E70120D1E70120CFE790F83C3022
:10273800012B22D010B50446012380F83C30022337
:1027480080F83D30FFF796FF80B92268D36823F000
:102758004003D3602268D36823F48043D360012305
:1027680084F83D30002384F83C3010BD012084F803
:102778003D00002384F83C30F7E702207047000052
:1027880090F83C30012B3CD010B4012380F83C3049
:10279800022380F83D3003685A689C6822F0700C68
:1027A8000A6842EA0C025A600368174A93421AD030
:1027B800B3F1804F17D0A2F57C42934213D002F5B3
:1027C800806293420FD002F5806293420BD002F5EB
:1027D8007842934207D002F57052934203D0A2F593
:1027E8009432934204D124F080044A6814439C60D4
:1027F800012380F83D30002380F83C30184610BC97
:1028080070470220704700BF0000014038B50446F9
:102818000268136923F44053C1680B43136183684A
:102828000269134342691343C2691A430168CB68BA
:1028380023F4164323F00C031343CB600268536957
:1028480023F4407381690B4353610368314A93420F
:1028580006D002F58062934202D0FFF7C3FD01E083
:10286800FFF7D0FDE369B3F5004F29D00021031825
:1028780049411B1841F10001C90041EA5371DB00CD
:10288800181863684FEA83024FEA937341F1000115
:10289800FDF796FC204DA5FB00325109642303FB8C
:1028A80011031B013233A5FB03235B0903F0F0027C
:1028B80002EB011203F00F03216813448B6038BD4B
:1028C8000023021843EB0301121841F10001C9006B
:1028D80041EA5271D200101841F100016268921861
:1028E8005B41FDF76DFC0C4DA5FB003251096423DB
:1028F80003FB1103DB003233A5FB03235B095A00FA
:1029080002F4F87202EB011203F007032168134482
:102918008B60D4E7001001401F85EB5160B310B500
:10292800044690F8413013B3242384F841302268D8
:10293800D36823F40053D3602046FFF767FF22686B
:10294800136923F4904313612268536923F02A031F
:1029580053612268D36843F40053D3600020606455
:10296800202384F8413084F84230606310BD80F839
:102978004030FEF7ABF8D7E70120704770B50D4E31
:102988000D4D761BB61006D0002455F8043B0134D3
:102998009847A642F9D1094E094D761B00F0D4F8A4
:1029A800B61006D0002455F8043B01349847A642D7
:1029B800F9D170BDE8800008E8800008F0800008C0
:1029C800E8800008830730B548D0541E002A3FD05D
:1029D800CAB2034601E0013C3AD303F8012B9D0734
:1029E800F9D1032C2DD9CDB245EA05250F2C45EA9E
:1029F800054536D9A4F1100222F00F0C03F1200E80
:102A0800E6444FEA121C03F1100242E9045542E978
:102A1800025510327245F8D10CF1010214F00C0F76
:102A280003EB021204F00F0C13D0ACF1040323F0F3
:102A380003030433134442F8045B9342FBD10CF0C4
:102A480003042CB1CAB21C4403F8012B9C42FBD1ED
:102A580030BD64461346002CF4D1F9E7034614460A
:102A6800BFE71A46A446E0E7024B13B1024800F05C
:102A780005B8704700000000912A000800230146AD
:102A88001A46184600F01AB838B5084B084D5B1BB3
:102A98009C1007D0043B1D44013C55F80439984765
:102AA800002CF9D1BDE8384000F054B8F480000893
:102AB800F0800008704700BF704700BF2DE9F0475D
:102AC800DFF87CA00646DAF8000098460F469146E3
:102AD800FFF7F0FF1B4B1B68D3F8484124B3656828
:102AE8001F2D26DC5EB96B1C0235DAF80000636026
:102AF80044F82570FFF7E0FF0020BDE8F08704EBFD
:102B080085010123C1F88890D4F88821AB401A4385
:102B1800022EC4F88821C1F80881E4D1D4F88C21A8
:102B28001343C4F88C31DEE703F5A674C3F84841B3
:102B3800D5E7DAF80000FFF7BFFF4FF0FF30DCE71A
:102B480080040020DC800008F8B500BFF8BC08BC91
:102B58009E467047F8B500BFF8BC08BC9E46704753
:102B680053544D333220E588B7E5B18FE6B58BE88D
:102B7800AF950000E5B18FE5B995E58886E8BEA870
:102B8800E78E873A3234302A33323000E68EA7E5B2
:102B980088B6E599A83A5354373738390000000009
:102BA80000000000000000000102030406070809F5
:102BB8000000000001020304000000000000000003
:102BC80000000000000004040404040400040000E1
:102BD80000140A0A0000000000000000000014149D
:102BE8003F140A3F0A0A000000041E1505060C14CB
:102BF800150F0400000012150D0A142C2A120000EB
:102C08000000040A0A1E1515093600000002020118
:102C18000000000000000000002010080808080854
:102C28000810200000020408080808080804020028
:102C380000000004150E0E15040000000000040436
:102C4800041F04040400000000000000000000004D
:102C58000002020100000000001F00000000000048
:102C6800000000000000000000020000001008083A
:102C7800080404020202010000000E1111111111D2
:102C8800110E00000000040604040404040E0000F1
:102C980000000E1111080402011F000000000E11AF
:102CA800100C1010110E00000000080C0A0A091E72
:102CB8000818000000001F01010F1010110E00007D
:102CC80000000E09010F1111110E000000001F096C
:102CD800080404040404000000000E11110E111170
:102CE800110E000000000E1111111E10120E00002E
:102CF80000000000040000000004000000000000C4
:102D08000004000000040400002010080402040865
:102D180010200000000000001F00001F000000003D
:102D280000020408102010080402000000000E1120
:102D3800110804040004000000000E111915151DE7
:102D4800011E0000000004040C0A0A1E12330000D1
:102D580000000F12120E1212120F000000001E11B6
:102D680001010101110E000000000F1212121212CF
:102D7800120F000000001F120A0E0A02121F0000A4
:102D880000001F120A0E0A020207000000001C12AF
:102D980001013911120C000000003312121E121228
:102DA8001233000000001F0404040404041F000080
:102DB80000003E0808080808080907000000371244
:102DC8000A060A0A1237000000000702020202027D
:102DD800223F000000001B1B1B1B151515150000CA
:102DE80000003B1216161A1A1217000000000E11E6
:102DF80011111111110E000000000F12120E020223
:102E08000207000000000E1111111117190E180009
:102E180000000F12120E0A121237000000001E11D5
:102E280001060810110F000000001F150404040417
:102E3800040E00000000331212121212120C0000CD
:102E480000003312120A0A0C0404000000001515D1
:102E5800150E0A0A0A0A000000001B0A0A04040ADE
:102E68000A1B000000001B0A0A040404040E0000E8
:102E780000001F0908040402121F0000001C0404BB
:102E88000404040404041C000002020204040808E8
:102E980008100000000E08080808080808080E00B6
:102EA80000040A000000000000000000000000000C
:102EB800000000000000003F0004000000000000C7
:102EC8000000000000000000000C121C123C000072
:102ED80000000302020E1212120E00000000000091
:102EE800001C1202021C000000001810101C121214
:102EF800123C000000000000000C121E021C000022
:102F080000003804041E0404041E00000000000031
:102F1800003C120C021E221C00000302020E1212B8
:102F2800123700000000040000060404040E00002C
:102F380000000800000C0808080808070000030241
:102F4800023A0A0E123700000000070404040404C1
:102F5800041F000000000000000F151515150000E3
:102F680000000000000F12121237000000000000DD
:102F7800000C1212120C000000000000000F1212C8
:102F8800120E020700000000001C1212121C10385A
:102F980000000000001B06020207000000000000FD
:102FA800001E020C101E000000000004040E0404A1
:102FB8000418000000000000001B1212123C000060
:102FC800000000000037120A0C0400000000000096
:102FD8000015150E0A0A000000000000001B0A0474
:102FE8000A1B0000000000000037120A0C0404034A
:102FF80000000000001E0804041E00000018080855
:103008000804080808081800080808080808080834
:103018000808080800060404040804040404060058
:103028000225180000000000000000000000000059
:103038000000000000000000000000000000000880
:1030480008080808080800001818000000486C2440
:103058001200000000000000000000000000002432
:1030680024247F1212127F12121200000000081C82
:103078002A2A0A0C1828282A2A1C080800000022D4
:10308800251515152A585454542200000000000C28
:103098001212120A76252911916E00000006060404
:1030A80003000000000000000000000000402010A5
:1030B800100808080808081010204000000204083A
:1030C800081010101010100808040200000000007A
:1030D80008086B1C1C6B08080000000000000000BA
:1030E800080808087F080808080000000000000019
:1030F80000000000000000000606040300000000B5
:1031080000000000FE0000000000000000000000B9
:1031180000000000000000000606000000008040DB
:1031280040202010100808040402020000000018C3
:103138002442424242424242241800000000000851
:103148000E08080808080808083E00000000003CAF
:103158004242422020100804427E00000000003C49
:103168004242201820404042221C0000000000205B
:103178003028242422227E20207800000000007EAF
:103188000202021A26404042221C000000000038B9
:103198002402021A26424242241800000000007E3F
:1031A8002222101008080808080800000000003C47
:1031B8004242422418244242423C000000000018C7
:1031C8002442424264584040241C00000000000091
:1031D8000000181800000000181800000000000087
:1031E800000000080000000000080804000000407B
:1031F800201008040204081020400000000000000D
:1032080000007F0000007F000000000000000002B6
:103218000408102040201008040200000000003CB0
:103228004242464020101000181800000000001C00
:10323800225A555555552D42221C00000000000801
:1032480008181414243C224242E700000000001F22
:103258002222221E22424242221F00000000007C3D
:103268004242010101010142221C00000000001F2E
:103278002242424242424242221F00000000003FD6
:103288004212121E12120242423F00000000003F8A
:103298004212121E12120202020700000000003C35
:1032A8002222010101712122221C0000000000E7F6
:1032B800424242427E42424242E700000000003E53
:1032C8000808080808080808083E00000000007CF4
:1032D80010101010101010101010110F00000077AF
:1032E80022120A0E0A12122222770000000000079A
:1032F8000202020202020202427F0000000000777E
:10330800363636362A2A2A2A2A6B0000000000E3BD
:1033180046464A4A52525262624700000000001C68
:103328002241414141414141221C00000000003F2F
:10333800424242423E020202020700000000001C14
:103348002241414141414D53321C60000000003F81
:103358004242423E1212222242C700000000007C74
:103368004242020418204042423E00000000007F12
:103378004908080808080808081C0000000000E7B9
:103388004242424242424242423C0000000000E7C0
:103398004242222424141418080800000000006B7C
:1033A800494949495555362222220000000000E7C4
:1033B800422424181818242442E70000000000774B
:1033C8002222141408080808081C00000000007EC7
:1033D8002120101008040442423F00000078080829
:1033E8000808080808080808080878000000020209
:1033F800040408080810102020204040001E101067
:10340800101010101010101010101E00003844007A
:1034180000000000000000000000000000000000A4
:103428000000000000000000000000FF0006080087
:103438000000000000000000000000000000000084
:103448000000003C4278444242FC000000000003B7
:103458000202021A26424242261A00000000000018
:1034680000000038440202024438000000000060F6
:10347800404040784442424264D8000000000000C6
:103488000000003C427E0202423C0000000000F0C6
:103498008808087E08080808083E000000000000A8
:1034A8000000007C22221C023C42423C0000000337
:1034B8000202023A4642424242E700000000000C83
:1034C8000C00000E08080808083E00000000003044
:1034D80030000038202020202020221E0000000379
:1034E80002020272120A1612227700000000000E71
:1034F8000808080808080808083E0000000000003E
:103508000000007F9292929292B7000000000000A3
:103518000000003B4642424242E700000000000033
:103528000000003C42424242423C000000000000D1
:103538000000001B26424242221E02070000000033
:103548000000007844424242447840E00000000015
:10355800000000774C040404041F00000000000071
:103568000000007C42023C40423E00000000000097
:103578000008083E0808080808300000000000009D
:10358800000000634242424262DC0000000000008A
:10359800000000E74224241408080000000000008E
:1035A800000000EB494955552222000000000000A8
:1035B8000000007624181818246E0000000000008F
:1035C800000000E74224241418080807000000003F
:1035D8000000007E22100808447E000000C0202061
:1035E80020202010202020202020C00010101010A3
:1035F80010101010101010101010101000060808ED
:103608000808081008080808080806000C32C20054
:1036180000000000000000000000000000000000A2
:103628000000000000000000000000000000000092
:103638000000000000000000000000000000000082
:1036480000000000000000000000300030003000E2
:103658003000300020002000200020002000000062
:103668000000300030000000000000000000D8001A
:10367800D8006C00240012000000000000000000C8
:103688000000000000000000000000000000000032
:10369800000000000000000000000000840084001A
:1036A8008400FF0184008400C60042004200FF013C
:1036B800420042004200000000000000000000003C
:1036C80000002000F80024012401A4012800300093
:1036D8006000A00020012C0124012401F800200032
:1036E80020000000000000000000000086004900E3
:1036F8004900290029001900D600280128012801BD
:1037080024012401C20000000000000000000000A5
:10371800000000000C00120012001200EA0046002F
:10372800460025002900390011003201CC000000B4
:10373800000000000000060006000400020001006E
:103748000000000000000000000000000000000071
:103758000000000000000000000000000000000160
:103768008000400020002000200010001000100001
:1037780010001000100020002000200040008000F1
:103788000001000000000100020004000800080019
:1037980008001000100010001000100010000800B1
:1037A80008000800040002000100000000000000FA
:1037B800000000000000200020002603AE03700077
:1037C8007000AE0326032000200000000000000067
:1037D80000000000000000000000000000001000D1
:1037E800100010001000FF01100010001000100061
:1037F80000000000000000000000000000000000C1
:1038080000000000000000000000000000000000B0
:103818000000000000000000000006000600040090
:10382800020001000000000000000000000000008D
:10383800000000000000FE0300000000000000007F
:103848000000000000000000000000000000000070
:103858000000000000000000000000000000000060
:103868000000000000000000000006000600000044
:10387800000000000000000200010001800080003C
:10388800C000400060002000300010001800080050
:10389800080004000400020000000000000000000E
:1038A8000000000078008400840002010201020187
:1038B8000201020102010201840084007800000074
:1038C80000000000000000000000000010001C00C4
:1038D8001000100010001000100010001000100060
:1038E800100010007C000000000000000000000034
:1038F800000000007C008200020102010201800039
:10390800400020001000080004010201FE01000030
:103918000000000000000000000000003C00420021
:103928008200820040007000800000010001020156
:10393800020182007C00000000000000000000007E
:10394800000040004000600050004800480044006B
:1039580042004200FE01400040004000F00100002B
:10396800000000000000000000000000FC0104004E
:1039780004000400040074008C000001000102012E
:10398800020182007C00000000000000000000002E
:1039980000000000F00008010401040002007A00A1
:1039A800860002010201020104018400780000007F
:1039B800000000000000000000000000FE0182007E
:1039C8004200400020001000100008000800080015
:1039D80008000800080000000000000000000000C7
:1039E8000000000078008400020102010201840046
:1039F80078008400020102010201840078000000BE
:103A080000000000000000000000000078008400B2
:103A18008200020102010201840178010001800094
:103A2800820042003C00000000000000000000008E
:103A3800000000000000000000003000300000001E
:103A4800000000000000000000003000300000000E
:103A5800000000000000000000000000000000005E
:103A6800000000001000000000000000000000003E
:103A780000000000100010001000100000000000FE
:103A88000000800040002000100008000400020030
:103A98000400080010002000400080000000000022
:103AA800000000000000000000000000000000000E
:103AB8000000FF01000000000000FF0100000000FE
:103AC80000000000000000000000000000000000EE
:103AD80000000200040008001000200040008000E0
:103AE8004000200010000800040002000000000050
:103AF80000000000000000000000780084000201BF
:103B0800060106010001800040002000200020007E
:103B1800000030003000000000000000000000003D
:103B2800000000007800C400F20159014901450174
:103B380025012501A500D9000201840078000000B4
:103B4800000000000000000000000000100010004D
:103B58002800280028002800440044007C00440075
:103B680082008200C7010000000000000000000081
:103B7800000000003F0042004200420022003E00D8
:103B88004200820082008200820042003F00000062
:103B9800000000000000000000000000780184011F
:103BA8000201020101000100010001000100010100
:103BB80002018600780000000000000000000000FC
:103BC800000000003F00C200820002010201020161
:103BD8000201020102010201820042003F000000CE
:103BE800000000000000000000000000FF0082004C
:103BF8000201420042007E00420042000200020030
:103C080002018200FF000000000000000000000028
:103C180000000000FF0082000201420042007E0016
:103C280042004200020002000200020007000000F9
:103C38000000000000000000000000007001880182
:103C480004010201020002000200820302010201D3
:103C580004010C01F000000000000000000000005A
:103C680000000000C70182008200820082008200FA
:103C7800FE0082008200820082008200C7010000EC
:103C8800000000000000000000000000FE0010001E
:103C9800100010001000100010001000100010009C
:103CA80010001000FE0000000000000000000000EE
:103CB80000000000FC01200020002000200020005F
:103CC80020002000200020002000200021001100FA
:103CD8000E0000000000000000000000E7014200A4
:103CE8002200220012001A001600220022004200C0
:103CF80042008200C7010000000000000000000030
:103D0800000000000700020002000200020002009A
:103D1800020002000200020002018200FF0000000F
:103D2800000000000000000000000000C701C600FD
:103D3800C600C600AA00AA00AA00AA00AA0092000B
:103D480092009200D701000000000000000000006F
:103D580000000000C70186008A008A008A009200DD
:103D68009200A200A200C200C200C20087000000A8
:103D78000000000000000000000000003800C6003D
:103D8800820001010101010101010101010101019B
:103D98008200C6003800000000000000000000009B
:103DA800000000007F00820002010201020182007F
:103DB8007E0002000200020002000200070000006C
:103DC8000000000000000000000000003800C600ED
:103DD8008200010101010101010101010101190133
:103DE800A600A60078004001C00000000000000006
:103DF800000000003F0042008200820042003E00B6
:103E080012002200220042004200820087010000C6
:103E1800000000000000000000000000780184019C
:103E28000201020002000C00700080000001020183
:103E3800020186007A000000000000000000000077
:103E480000000000FE001101110110001000100018
:103E580010001000100010001000100038000000C2
:103E6800000000000000000000000000C701820000
:103E7800820082008200820082008200820082002A
:103E8800820044003800000000000000000000002C
:103E980000000000C7018200820044004400440082
:103EA80044002800280028003800100010000000F6
:103EB800000000000000000000000000BB019200AC
:103EC800920092009200AA00AA00AA006A00440088
:103ED800440044004400000000000000000000000E
:103EE80000000000CE018400440048002800300093
:103EF800100030002800480048008400CE0100006F
:103F0800000000000000000000000000C70182005F
:103F18004400440028002800100010001000100081
:103F28001000100038000000000000000000000031
:103F380000000000FC0184008200400040002000D6
:103F4800100010000800080004018400FE000000B2
:103F5800000000000000F001100010001000100028
:103F680010001000100010001000100010001000C9
:103F7800100010001000F001000000000000000018
:103F880002000400040008000800080010001000E7
:103F980020002000200040004000800080008000B9
:103FA8000001000000003E0020002000200020004A
:103FB80020002000200020002000200020002000F9
:103FC8002000200020003E00000000000000380013
:103FD800280044000000000000000000000000006D
:103FE80000000000000000000000000000000000C9
:103FF80000000000000000000000000000000000B9
:1040080000000000000000000000000000000000A8
:1040180000000000000000000000FF03000018007E
:104028002000000000000000000000000000000068
:104038000000000000000000000000000000000078
:104048000000000000000000000000000000000068
:10405800000000007C0082008200F0008C008200DA
:104068008200C202BC030000000000000000000043
:104078000000000003000200020002003A004600AF
:104088008200820082008200820046003A0000001E
:104098000000000000000000000000000000000018
:1040A8000000000078008400820002000200020084
:1040B80002018400780000000000000000000000F9
:1040C80000000000C000800080008000B800C4002C
:1040D80082008200820082008200C400B8010000D1
:1040E80000000000000000000000000000000000C8
:1040F80000000000780084000201FE0102000200B6
:1041080002018400780000000000000000000000A8
:1041180000000000E001100210001000FC00100078
:10412800100010001000100010001000FC0000002B
:104138000000000000000000000000000000000077
:1041480000000000F80184008400840084007800E6
:1041580004007C00840102010201FC000000000050
:104168000000000003000200020002007A0086003E
:10417800820082008200820082008200C701000063
:1041880000000000000000000000000018001800F7
:10419800000000001C0010001000100010001000AB
:1041A800100010007C00000000000000000000006B
:1041B8000000000060006000000000007000400087
:1041C80040004000400040004000400040004000E7
:1041D80022001E0000000000000000000300020092
:1041E80002000200E200220012000A00160022006B
:1041F80042008200C701000000000000000000002B
:10420800000000001E001000100010001000100038
:10421800100010001000100010001000FE00000038
:104228000000000000000000000000000000000086
:10423800000000007F00920092009200920092001D
:1042480092009200B701000000000000000000008A
:104258000000000000000000000000007B00860055
:10426800820082008200820082008200C701000072
:104278000000000000000000000000000000000036
:10428800000000007800840002010201020102011E
:104298000201840078000000000000000000000017
:1042A8000000000000000000000000003B00460085
:1042B8008200820082008200820046003A000200EA
:1042C80002000700000000000000000000000000DD
:1042D80000000000B800C400820082008200820052
:1042E8008200C400B80080008000C0010000000007
:1042F800000000000000000000000000CE012801BE
:104308001800080008000800080008003E00000027
:104318000000000000000000000000000000000095
:1043280000000000BC00C200820006003800C00087
:10433800820086007A0000000000000000000000F3
:10434800000000000000100010001000FC00100029
:104358001000100010001000100090006000000015
:104368000000000000000000000000000000000045
:1043780000000000C30082008200820082008200E8
:104388008200C200BC010000000000000000000024
:10439800000000000000000000000000C7018200CB
:1043A80044004400440028002800100010000000C9
:1043B80000000000000000000000000000000000F5
:1043C80000000000BB01920092009200AA00AA001F
:1043D8004400440044000000000000000000000009
:1043E800000000000000000000000000CE01840072
:1043F800480030003000300048008400CE01000042
:1044080000000000000000000000000000000000A4
:1044180000000000EE0184008800480048005000B9
:10442800300020001000100010000C0000000000F8
:10443800000000000000000000000000FE00420034
:10444800220020001000080084008200FE00000006
:1044580000000000000080014000400040004000D3
:104468004000400060001000600040004000400034
:104478004000400040004000800100002000200073
:104488002000200020002000200020002000200024
:104498002000200020002000200020002000200014
:1044A800200020000000060008000800080008009E
:1044B800080008001800200018000800080008007C
:1044C8000800080008000800060000001C0026027A
:1044D8002203C001000000000000000000000000EE
:1044E80000000000000000000000000000000000C4
:1044F80000000000000000000000000000000000B4
:1045080000000000000000000000000000000000A3
:104518000000000000000000000000000000000093
:1045280000000000000000000000000060006000C3
:104538006000600060006000600040002000200013
:104548002000000000000000600060006000000023
:1045580000000000000000006006600630039801BB
:104568008800440000000000000000000000000077
:104578000000000000000000000000000000000033
:1045880000000000000000000000000010021002FF
:1045980010021002FE07FE070802080108010801C0
:1045A8000801FE07FE0704010401040104010000DC
:1045B8000000000000000000000040004000F00182
:1045C80058034C03CC034C0058007000E000C001B5
:1045D800C00140034C035C034C034801F000400059
:1045E8004000000000000000000000000E010A0169
:1045F800910091009100510051003A00AE03A002D1
:104608005004500448044804480484028403000009
:1046180000000000000000000000000038006C00EE
:104628006C006C006C006C002C0098071C011A01CF
:10463800330133016301E300C308C6093C070000E6
:1046480000000000000000000C001C00100010001A
:104658000800040000000000000000000000000046
:104668000000000000000000000000000000000042
:1046780000000000000000000004000200018000AB
:104688008000400040002000200020002000200082
:10469800200020004000400080008000000100024F
:1046A80000040000000000000200040008001000E0
:1046B8001000200020004000400040004000400062
:1046C80040004000200020001000100008000400F6
:1046D80002000000000000000000000000000000D0
:1046E8004000C0004000460C4E0FD001F0015E0FA4
:1046F800460C4000400040000000000000000000A0
:1047080000000000000000000000000000000000A1
:10471800000040004000400040004000FE0F400004
:104728004000400040004000000000000000000081
:104738000000000000000000000000000000000071
:104748000000000000000000000000000000000061
:1047580000000000000000000C001C001000100009
:104768000800040000000000000000000000000035
:10477800000000000000000000000000FE0700002C
:104788000000000000000000000000000000000021
:104798000000000000000000000000000000000011
:1047A8000000000000000000000000000000000001
:1047B80000000000000000001C001C001C0000009D
:1047C80000000000000000000004000600020003D2
:1047D80000010001800080004000400060002000CF
:1047E800200010001000080008000C00040006005B
:1047F8000200000000000000000000000000F000BF
:1048080098010C030C0306060606060606060606AD
:104818000606060606060C030C039801F0000000C5
:104828000000000000000000000000000000400040
:104838007C00600060006000600060006000600054
:10484800600060006000600060006000FC03000021
:104858000000000000000000000000000000F80058
:104868008401020306030603000300018001C0005F
:10487800600020001000080204020602FE03000087
:1048880000000000000000000000000000007800A8
:10489800C6008601860180018001C0007000800189
:1048A800000100030003060306038601F800000068
:1048B800000000000000000000000000000080016F
:1048C8008001C001A001A001900188018801840134
:1048D8008201FE0F8001800180018001E007000055
:1048E8000000000000000000000000000000FC03C1
:1048F80004000400040004000400F4008C01040314
:10490800000300030603060382018401F800000087
:104918000000000000000000000000000000E001AE
:1049280018030C030C0004000600E60116030E062B
:1049380006060606060604060C021803F000000028
:104948000000000000000000000000000000F80760
:104958000C060402040100010001800080004000F0
:1049680040004000600060006000600060000000DF
:104978000000000000000000000000000000F80136
:104988000C030606060606060C021C03F000C80106
:104998000C0306060606060606060C03F0010000D0
:1049A8000000000000000000000000000000F0000F
:1049B8000C010C03060206060606060606078C0608
:1049C80078060006000300030C018C017800000043
:1049D80000000000000000000000000000000000CF
:1049E8000000000000000000E000E000E00000001F
:1049F8000000000000000000E000E000E00000000F
:104A0800000000000000000000000000000000009E
:104A180000000000000000006000600000000000CE
:104A2800000000000000000000006000600040007E
:104A38002000200000000000000000000004000228
:104A48000001800040002000100008000400080059
:104A58001000200040008000000100020004000057
:104A6800000000000000000000000000000000003E
:104A78000000000000000000FE0700000000000029
:104A8800FE07000000000000000000000000000019
:104A98000000000000000000000000000400080002
:104AA8001000200040008000000100020004000205
:104AB80000018000400020001000080004000000F1
:104AC8000000000000000000000000000000E003FB
:104AD8001806040C040C0C0C0C0C00078001400098
:104AE8004000400000000000E000E000E00000009E
:104AF800000000000000000000000000E0001803B3
:104B08000C02CC0564056605A605B604B604B60411
:104B1800B604B602E4010C040C021803F00000000D
:104B2800000000000000000000000000000060001D
:104B380060005000D00090009000880088010801B3
:104B4800F801040304030402020202060F0F000026
:104B58000000000000000000000000000000FE004F
:104B68008C030C030C030C030C038C01FC000C03DA
:104B78000C020C060C060C060C060C03FE010000C9
:104B88000000000000000000000000000000E0033A
:104B980018030C060C0404040600060006000600B0
:104BA8000600060006040C040C021803F0000000BE
:104BB80000000000000000000000000000007F006E
:104BC8008C010C030C030C060C060C060C060C06D8
:104BD8000C060C060C060C030C038C017F0000006D
:104BE8000000000000000000000000000000FF03BB
:104BF800060306040604060086008600FE008600FA
:104C0800860086000600060406040602FF0300006C
:104C18000000000000000000000000000000FF038A
:104C2800060306040604060086008600FE008600C9
:104C38008600860006000600060006001F00000029
:104C48000000000000000000000000000000F0006C
:104C580018010C020C0204020600060006000600F9
:104C6800C60F060306030C030C031803F00000002C
:104C780000000000000000000000000000000F0F0E
:104C8800060606060606060606060606FE070606C3
:104C98000606060606060606060606060F0F0000A6
:104CA8000000000000000000000000000000FC03FD
:104CB80060006000600060006000600060006000EC
:104CC800600060006000600060006000FC0300009D
:104CD8000000000000000000000000000000F807CD
:104CE800C000C000C000C000C000C000C000C000BC
:104CF800C000C000C000C000C000C000C000C600A6
:104D080066003C0000000000000000000000CF0327
:104D18008601C60046002600160036002E006E00EA
:104D28004600C60086008601060106038F070000BC
:104D380000000000000000000000000000001F004C
:104D4800060006000600060006000600060006002B
:104D5800060006000600060406040602FF0300001B
:104D6800000000000000000000000000000007072D
:104D7800860386038E038E034E034E034A035A03AB
:104D88005A033A033203320332031203870700003F
:104D980000000000000000000000000000008E0F6E
:104DA8000C021C021C023402340264026402440233
:104DB800C402840284038403040304031F02000062
:104DC8000000000000000000000000000000F000EB
:104DD80098010C030C0206060606060606060606D9
:104DE8000606060606060C020C039801F0000000F1
:104DF8000000000000000000000000000000FF00AC
:104E08000603060606060606060606068603FE00CE
:104E18000600060006000600060006001F00000047
:104E28000000000000000000000000000000F0008A
:104E380098010C030C020606060606060606060678
:104E48000606060676064C02CC039801F000800799
:104E58000003000000000000000000000000FF0147
:104E6800060306060606060606060603FE004600B4
:104E7800C600860086010603060306060F0E00001C
:104E88000000000000000000000000000000F80220
:104E98000C030602060206000E003C00F800E003C0
:104EA800800300070206020606060C03F001000054
:104EB8000000000000000000000000000000FE07E5
:104EC80062046108610860006000600060006000C2
:104ED800600060006000600060006000F801000091
:104EE80000000000000000000000000000001E0795
:104EF8000C020C020C020C020C020C020C020C023A
:104F08000C020C020C020C020C021801F00000004A
:104F180000000000000000000000000000000F0773
:104F28000602040104010C010C01880088009800A5
:104F38009800500050007000300020002000000051
:104F48000000000000000000000000000000F70E54
:104F5800620442044604460464026402E402E40271
:104F68009C029C0198019801880188008800000033
:104F780000000000000000000000000000009E0784
:104F88000C01080118019000B000600020006000CA
:104F98006000D00090008801080104038E0700001B
:104FA80000000000000000000000000000000F0FDB
:104FB800060404020C0208011801B800B0007000D1
:104FC800600060006000600060006000F8010000A0
:104FD8000000000000000000000000000000FC07C6
:104FE8000C020603020180018000400040002000FE
:104FF80020001000180008040C040402FE0300003E
:105008000000000000000000E00320002000200055
:105018002000200020002000200020002000200088
:105028002000200020002000200020002000200078
:10503800E00300000000000000000000040004007D
:105048000800080010001000100020002000400098
:105058004000C00080008000000100010002000242
:1050680000020004000000007C00400040004000F6
:105078004000400040004000400040004000400028
:105088004000400040004000400040004000400018
:105098007C00000000006000900008010000000093
:1050A80000000000000000000000000000000000F8
:1050B80000000000000000000000000000000000E8
:1050C80000000000000000000000000000000000D8
:1050D80000000000000000000000000000000000C8
:1050E80000000000000000000000000000000000B8
:1050F8000000FF0F00000000180060000000000022
:105108000000000000000000000000000000000097
:105118000000000000000000000000000000000087
:105128000000000000000000000000000000000077
:105138000000000000000000F0010C030C03000355
:10514800E0031C030E03060306038E0B7C0E00000F
:1051580000000000000000000000000008000E0031
:105168000C000C000C000C00CC013C031C060C06C7
:105178000C060C060C060C060C021C03E4010000CD
:105188000000000000000000000000000000000017
:105198000000000000000000F0008C018C01860176
:1051A80006000600060006020C020C01F0000000D2
:1051B8000000000000000000000000000002C00322
:1051C800000300030003000378038C030C030603A9
:1051D800060306030603060304038C077801000090
:1051E80000000000000000000000000000000000B7
:1051F8000000000000000000E001180308020C068F
:105208000C06FC070C000C0018041802E001000052
:105218000000000000000000000000000000C003C3
:105228006006300630003000FE01300030003000EB
:10523800300030003000300030003000FC01000049
:105248000000000000000000000000000000000056
:105258000000000000000000F007D8068C018C0157
:105268008C019801F8000C00FC00CC03060306032F
:105278008E03F800000000000000000008000E0087
:105288000C000C000C000C00EC011C030C030C03BC
:105298000C030C030C030C030C030C039E07000007
:1052A8000000000000000000000000000000600096
:1052B80060000000000040007C00600060006000AA
:1052C800600060006000600060006000FC03000097
:1052D8000000000000000000000000000000C00105
:1052E800C001000000000001F00180018001800180
:1052F800800180018001800180018001800180019E
:10530800CC007C00000000000000000008000E0037
:105318000C000C000C000C008C038C008C004C0062
:105328006C005C008C008C010C010C039E070000D3
:1053380000000000000000000000000040007C00A9
:105348006000600060006000600060006000600055
:10535800600060006000600060006000FC03000006
:105368000000000000000000000000000000000035
:1053780000000000000000003707EE06660666061B
:10538800660666066606660666066606FF0F00007F
:105398000000000000000000000000000000000005
:1053A8000000000000000000EE011C030C030C03C9
:1053B8000C030C030C030C030C030C039E070000E6
:1053C80000000000000000000000000000000000D5
:1053D8000000000000000000F00098010C03060621
:1053E80006060606060606060C030C03F000000077
:1053F80000000000000000000000000000000000A5
:105408000000000000000000EE011C030C060C0662
:105418000C060C060C060C060C031C03EC010C0015
:105428000C003E000000000000000000000000002A
:10543800000000000000000078028C030C03060343
:10544800060306030603060304038C03780300031C
:105458000003C0070000000000000000000000007A
:1054680000000000000000009F03580638061800DE
:10547800180018001800180018001800FF00000095
:105488000000000000000000000000000000000014
:105498000000000000000000F0031C030C020C02D6
:1054A8003800F000C003040304038C03FC0100006F
:1054B80000000000000000000000000000000000E4
:1054C8002000200030003000FE01300030003000A5
:1054D800300030003000300030023002E0010000BF
:1054E80000000000000000000000000000000000B4
:1054F80000000000000008028E030C030C030C03DC
:105508000C030C030C030C030C039C07780100002C
:105518000000000000000000000000000000000083
:1055280000000000000000001E070C02080108012E
:1055380018019000B000B00060006000200000007A
:105548000000000000000000000000000000000053
:105558000000000000000000F70E62044604640228
:105568006402EC029C01980198019801080000006F
:105578000000000000000000000000000000000023
:105588000000000000000000BC0718011001B00076
:1055980060006000E0009000080108039E0700001A
:1055A80000000000000000000000000000000000F3
:1055B80000000000000000009E0708010801080123
:1055C80090009000B00060006000600020002000A3
:1055D80024001C0000000000000000000000000083
:1055E8000000000000000000FC018401C400440029
:1055F800600020003000180208020C03FC010000C3
:10560800000000000000000000038000800080000F
:105618008000800080008000800040002000400062
:105628008000800080008000800080008000800072
:1056380000030000400040004000400040004000DF
:105648004000400040004000400040004000400052
:105658004000400040004000400040004000400042
:1056680040004000000000000C0010001000100076
:105678001000100010001000100020004000200052
:105688001000100010001000100010001000100092
:105698000C00000000001C002204C204800300006B
:1056A80000000000000000000000000000000000F2
:1056B80000000000000000000000000000000000E2
:1056C80000000000000000000000000000000000D2
:1056D80000000000000000000000000000000000C2
:1056E80000000000000000000000000000000000B2
:1056F80000000000000000000000000000000000A2
:105708000000000000000000000000000000000091
:10571800C003C003C003C003C003C00380038001EB
:1057280080018001800180018001800180010000EA
:10573800000000008001C003C003800100000000D9
:105748000000000000000000C018E01CE01C700E03
:10575800300618038C0184000000000000000000DF
:105768000000000000000000000000000000000031
:105778000000000000000000000000000000000021
:105788000000000000000000000000000000000011
:1057980020102010201020102010FE7FFE7FFE7F9A
:1057A800100810081008100810081008FE7FFE7F67
:1057B800FE7F180C08040804080408040000000010
:1057C80000000000000000000000000080008000D1
:1057D800C003B00C90189818981C981CB800B0001A
:1057E800F000E000C0038007800F800C801C801848
:1057F8009C189C188C188C0C9806E003800080007C
:105808008000000000000000000000000000000010
:105818001C083608220463046302630263026301FE
:1058280063012201B61C9C3640224063406320631A
:1058380020631063106310220836081C0000000063
:105848000000000000000000000000000000000050
:10585800F00098008C018C018C018C018C00CC002C
:105868005C0038001C3E3C08320873086304E304FB
:10587800C3048303834306678C3E781C0000000042
:1058880000000000000000001C003C003C0030004C
:10589800300010000C0006000000000000000000AE
:1058A80000000000000000000000000000000000F0
:1058B80000000000000000000000000000000000E0
:1058C8000000000000000000004000200010001848
:1058D800000C0004000600020003000380018001A0
:1058E8008001800180018001800180018001000326
:1058F8000003000200060004000C0018001000203D
:105908000040000000000000020004000800180029
:105918003000200060004000C000C000800180010D
:105928008001800180018001800180018001C00028
:10593800C000C0006000200030001800080004000B
:10594800020000000000000000000000000000004D
:10595800000000000003800380030C631C713839C9
:10596800600D80038003600D38391C718C618003E1
:105978008003800300000000000000000000000019
:10598800000000000000000000000000000000000F
:1059980000000000000000010001000100010001FA
:1059A80000010001FC7F000100010001000100016D
:1059B80000010001000000000000000000000000DD
:1059C80000000000000000000000000000000000CF
:1059D80000000000000000000000000000000000BF
:1059E80000000000000000000000000000000000AF
:1059F800000000001C003C003C003000300010009B
:105A08000C0006000000000000000000000000007C
:105A1800000000000000000000000000000000007E
:105A280000000000FE7F00000000000000000000F1
:105A3800000000000000000000000000000000005E
:105A4800000000000000000000000000000000004E
:105A5800000000000000000000000000000000003E
:105A6800000000000000000000000000000000002E
:105A78000000000018003C003C0018000000000076
:105A8800000000000000000000000040006000204E
:105A98000030001000180008000C00040006000286
:105AA8000003000180018000C00040006000200069
:105AB80030001000180008000C0004000600020066
:105AC80000000000000000000000000000000000CE
