:020000040800F2
:1000000000000220F5080008E1060008E3060008E9
:10001000E5060008E7060008E90600080000000001
:10002000000000000000000000000000EB060008D7
:10003000ED06000800000000EF060008F1060008C9
:100040004509000845090008450900084509000858
:100050004509000845090008450900084509000848
:100060004509000845090008F90600084509000887
:100070004509000845090008450900084509000828
:100080004509000845090008450900084509000818
:100090004509000845090008450900084509000808
:1000A00045090008450900084509000845090008F8
:1000B00045090008450900084509000845090008E8
:1000C00045090008450900084509000845090008D8
:1000D00045090008450900084509000845090008C8
:1000E00045090008450900084509000845090008B8
:1000F00045090008450900084509000845090008A8
:100100004509000845090008450900084509000897
:100110004509000845090008450900084509000887
:100120004509000845090008450900084509000877
:100130004509000845090008450900084509000867
:100140004509000845090008450900084509000857
:100150004509000845090008050700084509000889
:100160004509000845090008450900084509000837
:10017000450900084509000845090008000000007D
:080180004509000845090008CB
:1001880010B5054C237833B9044B13B10448AFF3C9
:1001980000800123237010BD3C04002000000000F3
:1001A800C01D000808B5034B1BB103490348AFF352
:1001B800008008BD0000000040040020C01D0008A9
:1001C80053B94AB9002908BF00281CBF4FF0FF31B6
:1001D8004FF0FF3000F074B9ADF1080C6DE904CEB2
:1001E80000F006F8DDF804E0DDE9022304B070470A
:1001F8002DE9F047089E0D4604468846002B4DD150
:100208008A42944668D9B2FA82F252B101FA02F3EC
:10021800C2F1200120FA01F10CFA02FC41EA0308BC
:1002280094404FEA1C45210CB8FBF5FE1FFA8CF7E9
:1002380005FB1E8341EA03430EFB07F199420BD9E4
:100248001CEB03030EF1FF3080F01E81994240F24F
:100258001B81AEF1020E63445B1AA4B2B3FBF5F046
:1002680005FB103344EA034400FB07F7A7420AD909
:100278001CEB040400F1FF3380F00881A74240F230
:10028800058164440238E41B40EA0E4000211EB197
:10029800D4400023C6E90043BDE8F0878B4208D963
:1002A800002E00F0EE800021C6E900050846BDE8F2
:1002B800F087B3FA83F100294AD1AB4202D38242D4
:1002C80000F2F980841A65EB030301209846002E9A
:1002D800E2D0C6E90048DFE702B9FFDEB2FA82F2EF
:1002E800002A40F09180A1EB0C054FEA1C471FFA49
:1002F8008CFE0121B5FBF7F307FB1350250C45EAEB
:1003080000450EFB03F0A84208D91CEB050503F1D4
:10031800FF3802D2A84200F2CB8043462D1AA4B27D
:10032800B5FBF7F007FB105544EA05440EFB00FE49
:10033800A64508D91CEB040400F1FF3502D2A645F6
:1003480000F2BB802846A4EB0E0440EA03409EE777
:10035800C1F120078B4022FA07FC4CEA030C20FA73
:1003680007F405FA01F31C43FD404FEA1C4900FA63
:1003780001F3B5FBF9F8200C1FFA8CFE09FB1855A0
:1003880040EA054508FB0EF0A84202FA01F20BD933
:100398001CEB050508F1FF3A80F08880A84240F27E
:1003A8008580A8F1020865442D1AA4B2B5FBF9F0BE
:1003B80009FB105544EA054500FB0EFEAE4508D979
:1003C8001CEB050500F1FF346CD2AE456AD9023842
:1003D800654440EA0840A0FB0294A5EB0E05A5423F
:1003E800C846A64656D353D05EB1B3EB080265EBB8
:1003F8000E0505FA07F722FA01F3CD401F43C6E9B7
:1004080000750021BDE8F087C2F1200320FA03F14E
:100418000CFA02FC25FA03F395400D434FEA1C47FA
:100428001FFA8CFEB3FBF7F107FB11302B0C43EAE4
:10043800004301FB0EF0984204FA02F408D91CEBC1
:10044800030301F1FF382FD298422DD902396344B2
:100458001B1AADB2B3FBF7F007FB103345EA0345AF
:1004680000FB0EF3AB4208D91CEB050500F1FF3881
:1004780016D2AB4214D902386544ED1A40EA01415C
:1004880038E73146304607E78646E5E61846FAE695
:100498004B45A9D2B9EB020864EB0C0E0138A3E76F
:1004A8004046EAE7204694E74146D1E7D0467BE755
:1004B800023B654432E7084609E76444023842E7EC
:1004C800704700BF00B583B000210191094B1A6B3A
:1004D80042F480021A631B6B03F480030193019BAF
:1004E8000A46462000F0A8FA462000F0DDFA03B0DC
:1004F8005DF804FB0038024070B58AB0002405940A
:1005080006940794089409940094304B1A6B42F0AF
:1005180010021A631A6B02F010020092009A0194FA
:100528001A6B42F004021A631A6B02F00402019279
:10053800019A02941A6B42F080021A631A6B02F055
:1005480080020292029A03941A6B42F001021A6323
:100558001A6B02F001020392039A04941A6B42F098
:1005680002021A631B6B03F002030493049B184EE8
:1005780022464FF44061304600F0B2FDFF23059358
:1005880006940125079505A9124800F0B7FC102329
:1005980005934FF404130693079505A90E4800F038
:1005A800ADFC4FF440630593112306930795089417
:1005B80005A9304600F0A2FC224621460A2000F098
:1005C8003BFA0A2000F070FA0AB070BD0038024009
:1005D80000040240001002400000024072B6FEE72C
:1005E80000B595B03022002108A801F023FB0023B4
:1005F8000393049305930693079301931F4A116C81
:1006080041F080511164126C02F080520192019AFB
:1006180002931B4A116841F480411160126802F488
:1006280080420292029A0222089201210B91102123
:100638000C910E920F9308231093A82311931292F2
:100648000423139308A800F05FFD98B90F230393C0
:1006580002230493002305934FF4A05306934FF409
:1006680080530793052103A800F09CFF20B915B01B
:100678005DF804FBFFF7B2FFFFF7B0FF0038024058
:100688000070004008B500F099F9FFF7A9FFFFF7DF
:1006980033FFFFF717FF00F03BF800F0D3F8FEE751
:1006A80082B0002100910B4B5A6C42F480425A648C
:1006B8005A6C02F480420092009A01911A6C42F03E
:1006C80080521A641B6C03F080530193019B02B0A3
:1006D800704700BF00380240FEE7FEE7FEE7FEE78E
:1006E800FEE770477047704708B500F081F908BD0C
:1006F80008B5102000F0FAFC08BD000008B5024853
:1007080000F00EFB08BD00BF580400207047000031
:1007180000B589B0002303930493059306930793C8
:10072800019302931848194A02604FF6FF7242601B
:100738008360C26003614361836101F09BF8C8B9BB
:1007480006230393702304934FF400430593002377
:100758000693079303A90C4801F020F968B9002310
:100768000193029301A9084801F042F940B909B080
:100778005DF804FBFFF732FFE2E7FFF72FFFEEE734
:10078800FFF72CFFF3E700BFB80400200004014086
:1007980030B589B000230393049305930693079318
:1007A800026803F1804303F582339A4201D009B00D
:1007B80030BD04460025019503F59A335A6C42F082
:1007C80002025A645A6C02F002020192019A0295DE
:1007D8001A6B42F001021A631B6B03F001030293C8
:1007E800029B01230393022304930323079303A982
:1007F800114800F083FB1148114B03604FF0606310
:1008080043608560C5604FF480630361456185611D
:10081800C5614FF440330362456200F0E5F938B929
:10082800064B23639C63A3639C6363639C63BEE77B
:10083800FFF7D4FEF4E700BF000002405804002090
:10084800B864024008B50A480A4B03604FF4FA231B
:10085800436000238360C36003610C2242618361AB
:10086800C36101F093F900B908BDFFF7B7FEFBE7D4
:10087800000500200010014000B589B00023039353
:100888000493059306930793026803F1804303F5E5
:1008980088339A4202D009B05DF804FB0021019127
:1008A80003F594335A6C42F010025A645A6C02F001
:1008B80010020192019A02911A6B42F001021A6326
:1008C8001B6B03F001030293029B4FF4C063039375
:1008D80002230493032306930723079303A90248DB
:1008E80000F00CFBD7E700BF00000240DFF834D06F
:1008F800FFF70CFF0C480D490D4A002302E0D458BD
:10090800C4500433C4188C42F9D30A4A0A4C002351
:1009180001E013600432A242FBD301F067F9FFF74C
:10092800B1FE704700000220000000203C040020B7
:10093800101E00083C040020B00E0020FEE7000056
:1009480008B5074B1A68D36843F48043D3604FF463
:100958001663044A0449054800F0ACF908BD00BF15
:10096800B804002048050020101002405804002058
:1009780010B504460E4B18784FF47A73B3FBF0F3B6
:100988000C4A1068B0FBF3F000F09CF868B90F2C23
:1009980001D901200AE0002221464FF0FF3000F083
:1009A8004BF8054B1C60002000E0012010BD00BF83
:1009B80004000020000000200800002008B50B4BB0
:1009C8001A6842F400721A601A6842F480621A6067
:1009D8001A6842F480721A60032000F01BF80F2096
:1009E800FFF7C6FFFFF75CFE002008BD003C024091
:1009F800034A1168034B1B780B441360704700BF10
:100A0800A80E002004000020014B1868704700BFA2
:100A1800A80E0020074AD36823F4E0631B041B0CCC
:100A2800000200F4E060034343F0BF6343F4003383
:100A3800D360704700ED00E000B5194BDB68C3F3E5
:100A48000223C3F1070CBCF1040F28BF4FF0040CBC
:100A580003F1040EBEF1060F18D9033B4FF0FF3E19
:100A68000EFA0CFC21EA0C0199400EFA03F322EA73
:100A78000303194300280BDB0901C9B200F16040E8
:100A880000F5614080F800135DF804FB0023E5E7FA
:100A980000F00F000901C9B2024B1954F4E700BF76
:100AA80000ED00E014ED00E0002807DB00F01F0275
:100AB800400901239340024A42F82030704700BFA2
:100AC80000E100E00138B0F1807F0BD24FF0E02365
:100AD8005861054AF02182F8231000209861072206
:100AE8001A6170470120704700ED00E030B40568D6
:100AF8002C6824F480242C60046863608368402B8D
:100B080005D0036899600368DA6030BC70470368F1
:100B18009A600368D960F8E710B40368D9B210394D
:100B28000B4AA2FB014212090A4CA25CC2655F296A
:100B380008D923F47F7323F0030304338365806D9E
:100B480010BC704723F47F7323F003038365F6E733
:100B5800ABAAAAAAF01D0008836A826992B9012B80
:100B68000AD0022B02D00BB100207047C36A13F0E1
:100B7800807F28D100207047C36AB3F1C07F24D09A
:100B880000207047B2F5005F09D0022B25D9032B4E
:100B980025D1C36A13F0807F23D100207047032B2F
:100BA80003D8DFE803F01404140A00207047C36A6E
:100BB80013F0807F0DD100207047C36AB3F1C07F66
:100BC80009D000207047012070470120704701209C
:100BD80070470120704701207047012070470020AE
:100BE800704701207047000070B50446FFF70CFFFE
:100BF800002C5BD00546022384F83530002384F8A6
:100C080034302268136823F00103136023681A68DC
:100C180012F0010F0AD0FFF7F7FE431B052BF5D999
:100C280020236365032084F8350070BD1A682048C6
:100C380010406168A2680A43E1680A4321690A43CF
:100C480061690A43A1690A43E1690A43216A0A43BF
:100C58000243616A04291ED01A602668756925F066
:100C68000705636A1D43042B07D1A36A1D43E36A82
:100C78001BB12046FFF770FF90B975612046FFF75A
:100C88004BFFE26D3F2393408360002060650123A2
:100C980084F83530C9E7E16A206B01430A43DBE792
:100CA80040236365012084F83500BEE70120BCE7D6
:100CB8003F8010F038B50446856D90F8340001285F
:100CC8002BD0012084F8340094F83500C0B20128F4
:100CD80004D0002384F83430022038BD022084F880
:100CE8003500002060652046FFF700FFE26D3F23D6
:100CF8009340AB602268136843F016031360236CBB
:100D080023B12268136843F008031360226813684C
:100D180043F0010313600020DFE70220DDE7000055
:100D2800F0B583B0044600230193724B1D68724BE3
:100D3800A3FB0535AD0A876D3E68C26D0823934055
:100D4800334210D003681A6812F0040F0BD01A68E7
:100D580022F004021A60C26D08239340BB60436D01
:100D680043F001034365E26D01239340334209D008
:100D78002268526912F0800F04D0BB60636D43F0A3
:100D880002036365E26D04239340334209D022686D
:100D9800126812F0020F04D0BB60636D43F00403C5
:100DA8006365E26D10239340334224D022681268B1
:100DB80012F0080F1FD0BB6023681A6812F4802F46
:100DC8000DD01B6813F4002F04D1236C9BB120466F
:100DD800984710E0A36C73B1204698470BE01A6857
:100DE80012F4807F03D11A6822F008021A60236C7B
:100DF8000BB120469847E26D20239340334255D0EB
:100E08002268126812F0100F50D0BB6094F8353089
:100E1800DBB2052B0ED023681A6812F4802F33D06A
:100E28001B6813F4002F2AD1636C002B3ED0204698
:100E380098473BE02268136823F016031360226882
:100E4800536923F080035361236CA3B122681368AC
:100E580023F008031360E26D3F239340BB60012336
:100E680084F83530002384F83430236D002B3FD0CC
:100E7800204698473CE0A36C002BE7D1EBE7E36BF7
:100E8800A3B12046984711E01A6812F4807F09D16F
:100E98001A6822F010021A60012384F83530002302
:100EA80084F83430E36B0BB120469847636DFBB18F
:100EB800636D13F0010F17D0052384F835302268CD
:100EC800136823F001031360019B01330193AB42C4
:100ED80004D823681B6813F0010FF5D1012384F8A7
:100EE8003530002384F83430E36C0BB12046984742
:100EF80003B0F0BD00000020B5814E1B00230F2B6E
:100F080000F2E48070B582B060E085685E0003247A
:100F1800B44025EA0405CC68B4402C438460456895
:100F280025EA02054C68C4F300129A402A4342603D
:100F38005AE0DC08083450F8246003F007029500F2
:100F48000F22AA4026EA020E0A69AA4042EA0E02C5
:100F580040F824205CE0072200E0002202FA0EF2AA
:100F68002A4302345A4D45F824205A4A94686FEAB5
:100F78000C0224EA0C054E6816F4801F01D04CEAD6
:100F88000405544CA560E46802EA04054E6816F4AA
:100F9800001F01D04CEA04054E4CE560646802EA83
:100FA80004054E6816F4003F01D04CEA0405494C8C
:100FB8006560246822404D6815F4803F01D04CEAF2
:100FC8000402444C226001330F2B7DD801229A4041
:100FD8000C6804EA020C32EA0404F4D14C6804F008
:100FE8000304013C012C90D94A6802F00302032A49
:100FF80009D0C4685D000322AA4024EA02048A6872
:10100800AA402243C2604A6802F00302022A90D032
:1010180004684FEA430E032202FA0EF224EA02049D
:101028004A6802F0030202FA0EF2224302604A689A
:1010380012F4403FC7D000220192274A546C44F46E
:1010480080445464526C02F480420192019A9C08D4
:10105800A51C1F4A52F8255003F003024FEA820EDE
:101068000F2202FA0EF225EA02051C4A90423FF4CA
:1010780074AF02F5806290421AD002F58062904205
:1010880018D002F58062904216D002F58062904234
:1010980014D002F58062904212D002F5806290422C
:1010A80010D002F5806290423FF455AF082255E710
:1010B800012253E7022251E703224FE704224DE7BA
:1010C80005224BE7062249E702B070BD704700BF12
:1010D80000380140003C0140003802400000024056
:1010E8000AB18161704709048161704708B5054BF1
:1010F8005B69034200D108BD024B5861FFF720FC31
:10110800F9E700BF003C0140002800F0E08170B51D
:1011180082B00446036813F0010F3BD09F4B9B68D5
:1011280003F00C03042B2CD09C4B9B6803F00C039E
:10113800082B21D06368B3F5803F4FD0B3F5A02FBB
:1011480052D0964B1A6822F480321A601A6822F438
:1011580080221A606368002B50D0FFF755FC0546C3
:101168008E4B1B6813F4003F14D1FFF74DFC401B56
:101178006428F5D90320B1E1884B5B6813F4800F2C
:10118800D8D0864B1B6813F4003F03D06368002B4C
:1011980000F09F81236813F0020F54D07F4B9B68A7
:1011A80013F00C0F3ED07D4B9B6803F00C03082B0B
:1011B80033D0E368002B68D0794B01221A60FFF71F
:1011C80023FC0546754B1B6813F0020F54D1FFF73B
:1011D8001BFC401B0228F5D903207FE16F4A1368E6
:1011E80043F480331360B5E76C4B1A6842F48022ED
:1011F8001A601A6842F480321A60ABE7FFF704FC01
:101208000546664B1B6813F4003FC3D0FFF7FCFB91
:10121800401B6428F5D9032060E1604B5B6813F438
:10122800800FC6D15D4B1B6813F0020F03D0E36833
:10123800012B40F05081594A136823F0F8032169C3
:1012480043EAC1031360236813F0080F42D06369AF
:101258006BB3534B0122C3F8802EFFF7D5FB05462D
:101268004E4B5B6F13F0020F34D1FFF7CDFB401BE1
:101278000228F5D9032031E1484A136823F0F8031E
:10128800216943EAC1031360DDE7454B00221A6078
:10129800FFF7BAFB0546414B1B6813F0020FD2D08B
:1012A800FFF7B2FB401B0228F5D9032016E13C4B9F
:1012B8000022C3F8802EFFF7A7FB0546374B5B6F6C
:1012C80013F0020F06D0FFF79FFB401B0228F5D949
:1012D800032003E1236813F0040F77D02F4B1B6C16
:1012E80013F0805F33D1002301932C4B1A6C42F02A
:1012F80080521A641B6C03F080530193019B0125F3
:10130800284B1B6813F4807F23D0A368012B34D0AB
:10131800052B38D0214B1A6F22F001021A671A6F79
:1013280022F004021A67A368002B3DD0FFF76CFB7C
:1013380006461A4B1B6F13F0020F46D1FFF764FBEA
:10134800801B41F288339842F3D90320C6E0002578
:10135800D6E7144A136843F480731360FFF754FB0D
:101368000646104B1B6813F4807FCED1FFF74CFB69
:10137800801B0228F5D90320B0E0084A136F43F018
:1013880001031367CFE7054B1A6F42F004021A678F
:101398001A6F42F001021A67C5E700BF0038024021
:1013A8000000474200700040FFF72EFB0646524BF4
:1013B8001B6F13F0020F08D0FFF726FB801B41F2CA
:1013C80088339842F3D9032088E0EDB9A369002B4C
:1013D80000F08380484A926802F00C02082A51D033
:1013E800022B17D0454B00221A66FFF70DFB044667
:1013F800414B1B6813F0007F42D0FFF705FB001B31
:101408000228F5D9032069E03B4A136C23F0805386
:101418001364DBE7394B00221A66FFF7F5FA054635
:10142800354B1B6813F0007F06D0FFF7EDFA401B21
:101438000228F5D9032051E0E369226A1343626A5E
:1014480043EA8213A26A5208013A43EA0243E26A73
:1014580043EA0263284A5360284B01221A66FFF7C1
:10146800D3FA0446244B1B6813F0007F06D1FFF71C
:10147800CBFA001B0228F5D903202FE000202DE02D
:1014880000202BE0012B2BD01B4B5B6803F4800161
:10149800E269914226D103F03F02216A8A4223D1B0
:1014A800616A47F6C0721A40B2EB811F1ED103F47D
:1014B8004031A26A5208013AB1EB024F18D103F049
:1014C8007063E26AB3EB026F14D1002006E00120DA
:1014D8007047012002E0012000E0002002B070BD4A
:1014E8000120FBE70120F9E70120F7E70120F5E7F4
:1014F8000120F3E70120F1E70038024000004742ED
:1015080008B5254B9B6803F00C03042B3FD0082B30
:101518003FD1214B5A6802F03F025B6813F4800FF9
:1015280012D01D4B5968C1F388111C480023A1FB38
:101538000001FEF745FE184B5B68C3F30143013316
:101548005B00B0FBF3F025E0134B5968C1F3881C2E
:101558004FEA4C11B1EB0C006EEB0E0E4FEA8E13F6
:1015680043EA90638101091A63EB0E03DB0043EA47
:101578005173C90011EB0C0C43F1000399020023CD
:101588004FEA8C2041EA9C51FEF71AFED3E7034844
:1015980000E0034808BD00BF0038024040787D01E4
:1015A8000024F400002800F09B8070B50D46044626
:1015B8004F4B1B6803F007038B4208D2CBB24C4A4F
:1015C8001370136803F007038B4240F08B80236885
:1015D80013F0020F17D013F0040F04D0454A936894
:1015E80043F4E0539360236813F0080F04D0414A92
:1015F800936843F4604393603E4A936823F0F00392
:10160800A1680B439360236813F0010F32D063681D
:10161800012B21D09A1E012A25D9364A126812F0C8
:10162800020F61D033498A6822F0030213438B60AA
:10163800FFF7EAF906462F4B9B6803F00C03626834
:10164800B3EB820F16D0FFF7DFF9801B41F2883326
:101658009842F0D9032042E0264A126812F4003F6B
:10166800E0D101203BE0234A126812F0007FD9D173
:10167800012034E01E4B1B6803F00703AB4207D977
:10168800EAB21B4B1A701B6803F00703AB422DD15B
:10169800236813F0040F06D0164A936823F4E05326
:1016A800E1680B439360236813F0080F07D0114AD1
:1016B800936823F46043216943EAC1039360FFF709
:1016C8001FFF0C4B9B68C3F303130B4AD35CD84032
:1016D8000A4B18600A4B1868FFF74AF9002070BDDA
:1016E800012070470120FAE70120F8E70120F6E71A
:1016F800003C024000380240D81D000800000020CD
:1017080008000020014B1868704700BF0000002047
:1017180008B5FFF7F7FF044B9B68C3F38223034A1E
:10172800D35CD84008BD00BF00380240E81D00085F
:1017380008B5FFF7E7FF044B9B68C3F34233034A3E
:10174800D35CD84008BD00BF00380240E81D00083F
:1017580010B4036A046A24F001040462846924F062
:10176800F00C4CEA021223F00A030B438261036275
:1017780010BC704710B4036A046A24F010040462B1
:10178800846924F4704C4CEA023223F0A00343EA43
:1017980001138261036210BC704700000368344A79
:1017A800904212D0B0F1804F0FD0A2F57C42904207
:1017B8000BD002F58062904207D002F58062904219
:1017C80003D002F57842904203D123F070034A68AF
:1017D8001343274A90422AD0B0F1804F27D0A2F570
:1017E8007C42904223D002F5806290421FD002F5DD
:1017F800806290421BD002F57842904217D002F5E1
:101808007052904213D002F5806290420FD002F5D8
:10181800806290420BD0A2F59832904207D002F530
:101828008062904203D002F58062904203D123F493
:101838004073CA68134323F080034A691343036063
:101848008B68C3620B688362094B984203D003F527
:101858008063984201D10B690363012343610369E3
:1018680013F0010F03D0036923F0010303617047EC
:101878000000014040B310B5044690F83D30F3B184
:10188800022384F83D30214651F8040BFFF786FF08
:10189800012384F8463084F83E3084F83F3084F8D9
:1018A800403084F8413084F8423084F8433084F87A
:1018B800443084F8453084F83D30002010BD80F86D
:1018C8003C30FEF765FFDBE70120704710B4846801
:1018D80024F47F4C42EA03220A4342EA0C02826063
:1018E80010BC704710B50468A26822F070024B68FB
:1018F800134323F007030A681343A3604B68502B74
:1019080032D00BD9602B36D0702B43D10B698A6843
:10191800C9680068FFF7DAFF00200FE0402B0ED0FF
:1019280001D901200AE0202B2CD003D9302B2FD14C
:10193800002003E043B3102B28D1002010BD0B6812
:10194800052B29D003681C6A1A6A22F001021A6260
:101958000268936923F0F003096943EA011393616C
:1019680003681C620020E9E70A6989680068FFF7D4
:10197800EFFE0020E2E70A6989680068FFF7FAFECF
:101988000020DBE70020D9E70020D7E70120D5E7D2
:101998000120D3E70120D1E70120CFE790F83C30C0
:1019A800012B22D010B50446012380F83C300223D5
:1019B80080F83D30FFF796FF80B92268D36823F09E
:1019C8004003D3602268D36823F48043D3600123A3
:1019D80084F83D30002384F83C3010BD012084F8A1
:1019E8003D00002384F83C30F7E7022070470000F0
:1019F80090F83C30012B3CD010B4012380F83C30E7
:101A0800022380F83D3003685A689C6822F0700C05
:101A18000A6842EA0C025A600368174A93421AD0CD
:101A2800B3F1804F17D0A2F57C42934213D002F550
:101A3800806293420FD002F5806293420BD002F588
:101A48007842934207D002F57052934203D0A2F530
:101A58009432934204D124F080044A6814439C6071
:101A6800012380F83D30002380F83C30184610BC34
:101A780070470220704700BF0000014038B5044697
:101A88000268136923F44053C1680B4313618368E8
:101A98000269134342691343C2691A430168CB6858
:101AA80023F4164323F00C031343CB6002685369F5
:101AB80023F4407381690B4353610368314A9342AD
:101AC80006D002F58062934202D0FFF721FE01E0C2
:101AD800FFF72EFEE369B3F5004F29D00021031864
:101AE80049411B1841F10001C90041EA5371DB006B
:101AF800181863684FEA83024FEA937341F10001B3
:101B0800FEF75EFB204DA5FB00325109642303FB61
:101B180011031B013233A5FB03235B0903F0F00219
:101B280002EB011203F00F03216813448B6038BDE8
:101B38000023021843EB0301121841F10001C90008
:101B480041EA5271D200101841F1000162689218FE
:101B58005B41FEF735FB0C4DA5FB003251096423B0
:101B680003FB1103DB003233A5FB03235B095A0097
:101B780002F4F87202EB011203F007032168134420
:101B88008B60D4E7001001401F85EB5160B310B59E
:101B9800044690F8413013B3242384F84130226876
:101BA800D36823F40053D3602046FFF767FF226809
:101BB800136923F4904313612268536923F02A03BD
:101BC80053612268D36843F40053D36000206064F3
:101BD800202384F8413084F84230606310BD80F8D7
:101BE8004030FEF749FED7E70120704770B50D4E2B
:101BF8000D4D761BB61006D0002455F8043B013471
:101C08009847A642F9D1094E094D761B00F0D4F841
:101C1800B61006D0002455F8043B01349847A64274
:101C2800F9D170BD041E0008041E00080C1E00082F
:101C3800041E0008830730B548D0541E002A3FD040
:101C4800CAB2034601E0013C3AD303F8012B9D07D1
:101C5800F9D1032C2DD9CDB245EA05250F2C45EA3B
:101C6800054536D9A4F1100222F00F0C03F1200E1D
:101C7800E6444FEA121C03F1100242E9045542E916
:101C8800025510327245F8D10CF1010214F00C0F14
:101C980003EB021204F00F0C13D0ACF1040323F091
:101CA80003030433134442F8045B9342FBD10CF062
:101CB80003042CB1CAB21C4403F8012B9C42FBD18B
:101CC80030BD64461346002CF4D1F9E703461446A8
:101CD800BFE71A46A446E0E7024B13B1024800F0FA
:101CE80005B8704700000000011D000800230146E8
:101CF8001A46184600F01AB838B5084B084D5B1B51
:101D08009C1007D0043B1D44013C55F80439984702
:101D1800002CF9D1BDE8384000F054B8101E000876
:101D28000C1E0008704700BF704700BF2DE9F04740
:101D3800DFF87CA00646DAF8000098460F46914680
:101D4800FFF7F0FF1B4B1B68D3F8484124B36568C5
:101D58001F2D26DC5EB96B1C0235DAF800006360C3
:101D680044F82570FFF7E0FF0020BDE8F08704EB9A
:101D780085010123C1F88890D4F88821AB401A4323
:101D8800022EC4F88821C1F80881E4D1D4F88C2146
:101D98001343C4F88C31DEE703F5A674C3F8484151
:101DA800D5E7DAF80000FFF7BFFF4FF0FF30DCE7B8
:101DB80038040020F81D0008F8B500BFF8BC08BCBE
:101DC8009E467047F8B500BFF8BC08BC9E467047F1
:101DD80000000000000000000102030406070809D3
:101DE8000000000001020304000610160006101689
:041DF80010000020B7
:081DFC00FCE3FF7F0100000081
:081E0400E11C0008AD0100081B
:041E0C008901000840
:101E10000024F40001000000100000000000000099
:101E200000000000FC02002064030020CC0300201E
:101E300000000000000000000000000000000000A2
:101E40000000000000000000000000000000000092
:101E50000000000000000000000000000000000082
:101E60000000000000000000000000000000000072
:101E70000000000000000000000000000000000062
:101E80000000000000000000000000000000000052
:101E90000000000000000000000000000000000042
:101EA0000000000000000000000000000000000032
:101EB0000000000000000000000000000000000022
:101EC0000000000000000000010000000000000011
:101ED0000E33CDAB34126DE6ECDE05000B000000D6
:101EE00000000000000000000000000000000000F2
:101EF00000000000000000000000000000000000E2
:101F000000000000000000000000000000000000D1
:101F100000000000000000000000000000000000C1
:0C2240000000000000000000AC0E0020B8
:04000005080008F5F2
:00000001FF
